:020000040000FA
:100000000C9458000C9480000C9480000C94800098
:100010000C9480000C9480000C9480000C94800060
:100020000C9480000C9480000C9480000C94800050
:100030000C9480000C9480000C9480000C94800040
:100040000C946A060C9480000C94DA060C94B406A6
:100050000C9480000C9480000C9480000C94800020
:100060000C940C070C948000000000002500280070
:100070002B00040404040404040402020202020229
:10008000030303030303010204081020408001025C
:1000900004081020010204081020000000080002DB
:1000A00001000003040700000000000000002B080E
:1000B00011241FBECFEFD8E0DEBFCDBF11E0A0E01E
:1000C000B1E0EEEAF4E102C005900D92AC3BB1075D
:1000D000D9F723E0ACEBB1E001C01D92A334B20725
:1000E000E1F710E0C8E5D0E004C02197FE010E94CE
:1000F0004F0AC735D107C9F70E9482080C94550AE8
:100100000C94000080910D0290910E02891B990BB6
:10011000089590E0FC01E656FF4F2491FC01EA5758
:10012000FF4F3491FC01EE58FF4FE491EE23C9F0EC
:10013000222339F0233001F1A8F4213019F12230C3
:1001400029F1F0E0EE0FFF1FE859FF4FA591B491A0
:100150008FB7F894EC91611126C030953E233C9303
:100160008FBF08952730A9F02830C9F0243049F70F
:10017000809180008F7D03C0809180008F77809375
:100180008000DFCF84B58F7784BDDBCF84B58F7DD2
:10019000FBCF8091B0008F778093B000D2CF809159
:1001A000B0008F7DF9CF3E2BDACF3FB7F894809126
:1001B000090290910A02A0910B02B0910C0226B59F
:1001C000A89B05C02F3F19F00196A11DB11D3FBF8F
:1001D000BA2FA92F982F8827BC01CD01620F711D5E
:1001E000811D911D42E0660F771F881F991F4A9558
:1001F000D1F708958F929F92AF92BF92CF92DF92E4
:10020000EF92FF924B015C010E94D5006B017C01D3
:100210000E94D5006C197D098E099F09683E7340C4
:1002200081059105A8F321E0821A9108A108B1087F
:1002300088EEC80E83E0D81EE11CF11C81149104E5
:10024000A104B10429F7FF90EF90DF90CF90BF9009
:10025000AF909F908F90089508950895AF92BF92A8
:10026000CF92DF92EF92FF920F931F93CF93DF9382
:100270006C017B018B01040F151FEB015E01AE18B1
:10028000BF08C017D10759F06991D601ED91FC91D3
:100290000190F081E02DC6010995892B79F7C50100
:1002A000DF91CF911F910F91FF90EF90DF90CF9052
:1002B000BF90AF900895FC01538D448D252F30E001
:1002C000842F90E0821B930B541710F0CF96089563
:1002D00001970895FC01918D828D981761F0A28D90
:1002E000AE0FBF2FB11D5D968C91928D9F5F9F7356
:1002F000928F90E008958FEF9FEF0895FC01918D0C
:10030000828D981731F0828DE80FF11D858D90E078
:1003100008958FEF9FEF0895FC01918D228D892F15
:1003200090E0805C9F4F821B91098F7399270895FD
:100330008FE792E00E948C0121E0892B09F420E0F4
:10034000822F089580E090E0892B29F00E94980187
:1003500081110C9400000895FC01A48DA80FB92F01
:10036000B11DA35ABF4F2C91848D90E001968F73DD
:100370009927848FA689B7892C93A089B1898C91FC
:10038000837080648C93938D848D981306C002884B
:10039000F389E02D80818F7D80830895EF92FF9215
:1003A0000F931F93CF93DF93EC0181E0888F9B8D98
:1003B0008C8D98131AC0E889F989808185FF15C052
:1003C0009FB7F894EE89FF896083E889F989808175
:1003D0008370806480839FBF81E090E0DF91CF9144
:1003E0001F910F91FF90EF900895F62E0B8D10E066
:1003F0000F5F1F4F0F731127E02E8C8D8E110CC0D5
:100400000FB607FCFACFE889F989808185FFF5CF1F
:10041000CE010E94AC01F1CFEB8DEC0FFD2FF11D51
:10042000E35AFF4FF0829FB7F8940B8FEA89FB895C
:1004300080818062CFCFCF93DF93EC01888D8823BA
:10044000B9F0AA89BB89E889F9898C9185FD03C037
:10045000808186FD0DC00FB607FCF7CF8C9185FF1C
:10046000F2CF808185FFEDCFCE010E94AC01E9CFB4
:10047000DF91CF9108952091DD01260F3327331F9F
:1004800021323105ECF420917902FC0190E080E00A
:10049000243069F082E00895A091DD012191AC0142
:1004A00043545E4FA40FB52FB11D2C9301968617B0
:1004B00098F38091DD01680F6093DD0180E008957D
:1004C00081E008951092790281E0809358021092A1
:1004D000530261E082E10E94890061E083E10E94B1
:1004E0008900E9EBF0E080818E7F808380818D7FC1
:1004F000808388E48093B80085E48093BC000895ED
:10050000CF93DF9391E09093BC018823B9F0C09121
:10051000B800D091BA008091BC008A7B8093BC0067
:1005200060E082E10E94890060E083E10E9489002E
:100530000E946202D093BA00C093B800DF91CF91BD
:100540000895CF92DF92EF92FF920F931F93CF9374
:10055000DF93D82FC62F613208F098C00E94D500D3
:100560006B017C018091790281116BC081E08093E5
:100570007902809358029FEF90935702109256028F
:100580009C0F909355028093540280915402DD0F8A
:10059000D82BD093540280915302813009F078C057
:1005A000109253020E94D5006B017C01809154028D
:1005B0008093BB0080917B0290917C02A0917D0290
:1005C000B0917E02892B8A2B8B2BA1F00E94D50043
:1005D00000917B0210917C0220917D0230917E027D
:1005E0006C197D098E099F09061717072807390717
:1005F00008F448C08091BC0083FDD8CF85EC80937F
:10060000BC000E94D5006B017C0180917902813091
:1006100009F440C0809156028C1710F4C091560224
:10062000E3E3F2E0A9E5B2E080E08C1355C08C2F43
:10063000DF91CF911F910F91FF90EF90DF90CF90BE
:10064000089580917B0290917C02A0917D02B091EF
:100650007E02892B8A2B8B2B09F484CF0E94D50034
:1006600000917B0210917C0220917D0230917E02EC
:100670006C197D098E099F09061717072807390786
:1006800008F070CF80917A020E948002C0E0CFCF44
:1006900085EEB5CF80917B0290917C02A0917D0286
:1006A000B0917E02892B8A2B8B2B09F4AECF0E944E
:1006B000D50000917B0210917C0220917D02309147
:1006C0007E026C197D098E099F09061717072807F6
:1006D000390708F09ACFD6CF91919D938F5FA5CF20
:1006E0008F929F92AF92BF92CF92DF92EF92FF9242
:1006F0000F931F93CF93DF93D0913202D13208F042
:10070000D7C0182FC09131020E94D5006B017C0127
:100710008091790281116BC082E0809379021093FD
:1007200058028FEF8093570210925602D0935502D1
:10073000A1E1B2E0E3E3F2E080E0D81391C01092CF
:10074000540280915402CC0FC82BC0935402809164
:100750005302813009F088C0109253020E94D500E4
:100760006B017C01809154028093BB0080917B02DD
:1007700090917C02A0917D02B0917E02892B8A2B00
:100780008B2BA1F00E94D50000917B0210917C027E
:1007900020917D0230917E026C197D098E099F099E
:1007A000061717072807390708F442C08091BC00D4
:1007B00083FDD8CF85EC8093BC000E94D5006B01EF
:1007C0007C0180917902823009F450C080915702F7
:1007D0008F3F09F46FC080915702803209F46CC0DA
:1007E00080915702803309F469C084E026C080916B
:1007F0007B0290917C02A0917D02B0917E02892BB8
:100800008A2B8B2B09F484CF0E94D50080907B0229
:1008100090907C02A0907D02B0907E026C197D09C0
:100820008E099F0986169706A806B90608F070CFAC
:1008300080917A020E94800285E01092100210924C
:10084000320210920F02DF91CF911F910F91FF9012
:10085000EF90DF90CF90BF90AF909F908F900895D2
:100860009D9191938F5F69CF85EEA5CF80917B029B
:1008700090917C02A0917D02B0917E02892B8A2BFF
:100880008B2B09F49ECF0E94D50000917B02109122
:100890007C0220917D0230917E026C197D098E09C7
:1008A0009F09061717072807390708F08ACFC0CF16
:1008B00081E0C3CF80E0C1CF82E0BFCF83E0BDCF76
:1008C0000895E0910E0280910D02E81730F4F0E0F7
:1008D000E75AFD4F808190E008958FEF9FEF0895D4
:1008E00090910E0280910D022FEF3FEF981748F480
:1008F000E92FF0E0E75AFD4F208130E09F5F9093B1
:100900000E02C9010895CF92DF92EF92FF920F93EA
:100910001F93CF93DF937C01CB018A0120910F02BB
:10092000222389F0EB016B01C40ED51ECC15DD0529
:1009300069F06991D701ED91FC910190F081E02D72
:10094000C7010995F3CF642F0E943B02C801DF91D4
:10095000CF911F910F91FF90EF90DF90CF9008956E
:10096000CF93DF931F92CDB7DEB7698320910F023B
:100970002223F9F020913202203258F021E030E0B9
:10098000FC013383228390E080E00F90DF91CF91D0
:10099000089580911002E82FF0E0EF5EFD4F9981FD
:1009A00090838F5F809310028093320281E090E009
:1009B000ECCF61E0CE0101960E943B02F7CF90910F
:1009C0003C0321E020930F02909331021092100219
:1009D00010923202682F8CE193E00E94B00481E013
:1009E0000C94700390E080E00895FC0101900020D9
:1009F000E9F73197AF01481B590BBC018FE792E033
:100A00000C942E0184E291E00C94F5048F929F9255
:100A1000AF92BF920F931F93CF93DF93CDB7DEB703
:100A2000A1970FB6F894DEBF0FBECDBF19A242301A
:100A300008F44AE08E010F5D1F4F842E912CB12CDB
:100A4000A12CA50194010E942D0AE62FB901CA012B
:100A5000EA30F4F4E05DD801EE938D01232B242BD2
:100A6000252B79F790E080E0109719F0CD010E94D6
:100A7000F504A1960FB6F894DEBF0FBECDBFDF918F
:100A8000CF911F910F91BF90AF909F908F9008953D
:100A9000E95CE1CFCF92DF92EF92FF92CF93DF93A9
:100AA0006C01990FEE08FF086A30710501F54AE004
:100AB000F7FE1EC06DE28FE792E00E94CE01EC01CE
:100AC00066277727CB016C197D098E099F094AE0BB
:100AD0000E940605C80FD91F0E9402058C0F9D1F9A
:100AE000DF91CF91FF90EF90DF90CF900895462F48
:100AF000C701B6010E940605EC01EECFCF93DF934C
:100B00000E94F504EC010E9402058C0F9D1FDF91ED
:100B1000CF9108958F929F92BF92CF92DF92EF92E2
:100B2000FF920F931F93CF93DF937B018A01E9011B
:100B30000E94DF0461E070E080E090E00E94FA0033
:100B400010923D0310923E0310923F031092400317
:100B5000109241031092420366E080913C030E9490
:100B6000A102B82E10920E0280930D025DE3C52EF5
:100B700053E0D52E63E4862E63E0962E80910E021C
:100B8000B81659F08C149D0441F08CE193E00E945A
:100B90007004F60181936F01F1CF80913D0390E0E5
:100BA000982F8827F7019183808320913E03822B21
:100BB0009183808380913F0390E0982F8827F801EC
:100BC0009183808320914003822B91838083809145
:100BD000410390E0982F88279983888320914203CE
:100BE000822B99838883DF91CF911F910F91FF9082
:100BF000EF90DF90CF90BF909F908F9008951F93BC
:100C0000CF93DF93182FC8E2D3E08C8991E09093C3
:100C10000F0280933102109210021092320261EEA4
:100C20008CE193E00E94B004612F8CE193E00E947C
:100C3000B00481E00E9470036AE070E080E090E020
:100C40000E94FA0061E08C890E94A10210920E02BB
:100C500080930D028CE193E00E947004DF91CF91AC
:100C60001F91089585ED8093BC0080917B02909147
:100C70007C02A0917D02B0917E020796A11DB11D5C
:100C800023E0B695A795979587952A95D1F720915A
:100C9000BC0024FD03C010927902089540917B02AC
:100CA00050917C0260917D0270917E02452B462B13
:100CB000472B69F30097A105B10541F02AE22A9577
:100CC000F1F700C00197A109B109E1CF80917A0243
:100CD0000C9480021F920F920FB60F9211242F9343
:100CE0003F938F939F93AF93BF9380910502909111
:100CF0000602A0910702B09108023091040223E09D
:100D0000230F2D3758F50196A11DB11D2093040224
:100D10008093050290930602A0930702B093080205
:100D20008091090290910A02A0910B02B0910C02ED
:100D30000196A11DB11D8093090290930A02A09310
:100D40000B02B0930C02BF91AF919F918F913F9195
:100D50002F910F900FBE0F901F90189526E8230F2C
:100D60000296A11DB11DD2CF1F920F920FB60F9206
:100D700011242F933F934F935F936F937F938F93A0
:100D80009F93AF93BF93EF93FF938FE792E00E94FF
:100D9000AC01FF91EF91BF91AF919F918F917F91A6
:100DA0006F915F914F913F912F910F900FBE0F90D8
:100DB0001F9018951F920F920FB60F9211242F9328
:100DC0008F939F93EF93FF93E0918F02F0919002A6
:100DD0008081E0919502F091960282FD1BC0908186
:100DE000809198028F5F8F7320919902821741F052
:100DF000E0919802F0E0E158FD4F958F80939802C2
:100E0000FF91EF919F918F912F910F900FBE0F90B7
:100E10001F9018958081F4CF1F920F920FB60F92FA
:100E200011242F933F934F935F936F937F938F93EF
:100E30009F93AF93BF93EF93FF938091B900887F07
:100E4000803609F44AC0F0F5883209F4A7C018F5D5
:100E5000803109F49BC0B8F4882309F4F9C08830C4
:100E600009F494C0FF91EF91BF91AF919F918F9141
:100E70007F916F915F914F913F912F910F900FBE96
:100E80000F901F901895883109F488C0803251F76F
:100E90008093570214C0803409F49DC040F480331D
:100EA000B9F38833F9F68093570285ECB0C08035EA
:100EB00009F485C0883509F496C0883499F60E94F3
:100EC0003206D0CF883909F48CC038F5883729F03C
:100ED00050F4883611F0803729F683E08093790248
:100EE0001092FF0157C0883809F47BC0803919F08F
:100EF000803809F0B7CF8091FF01803208F071C0CF
:100F0000E091FF0181E08E0F8093FF018091BB0093
:100F1000F0E0E152FE4F80833DC0803B39F0E0F4C9
:100F2000803A09F479C0883A09F09CCF84E0809334
:100F300079021092DE011092DD01E0910202F0913F
:100F4000030209958091DD0181110FC081E080933A
:100F5000DD011092BD0109C0803C09F4A6CF883C98
:100F600009F4A3CF883B09F07DCFE091DE0181E059
:100F70008E0F8093DE01F0E0E354FE4F808180937A
:100F8000BB009091DE018091DD0129C08091540267
:100F90008093BB0085EC8093BC0064CF9091560297
:100FA00080915502981758F5E091560281E08E0F16
:100FB00080935602F0E0ED5CFD4F8081E9CFE09137
:100FC000560281E08E0F809356028091BB00F0E0C4
:100FD000ED5CFD4F808390915602809155029817E9
:100FE000C8F285E8D8CFE091560281E08E0F809359
:100FF00056028091BB00F0E0ED5CFD4F8083809154
:10100000580281115CCF81E08093530284EA80937F
:10101000BC001092790226CF85EC8093BC00109220
:1010200079028091FF01803230F4E091FF01F0E01D
:10103000E152FE4F10826091FF0170E0E0910002EA
:10104000F09101028FED91E009951092FF010ACF16
:101050001092570234CFEFE7F2E01382128288EE4B
:1010600093E0A0E0B0E084839583A683B78324E077
:1010700031E03183208325EC30E03587248724EC70
:1010800030E03787268720EC30E0318B208B21EC55
:1010900030E0338B228B22EC30E0358B248B26EC36
:1010A00030E0378B268B118E128E138E148EECE16E
:1010B000F3E01382128284839583A683B78386E14B
:1010C00091E091838083E8E2F3E089E1848B1582EB
:1010D0001482138212821182108213861286118664
:1010E000108617821682118A108A17861686158630
:1010F0001486138A128A158A168A178A108E118E00
:10110000128E0895789484B5826084BD84B5816020
:1011100084BD85B5826085BD85B5816085BD8091C2
:101120006E00816080936E0010928100809181003A
:101130008260809381008091810081608093810032
:10114000809180008160809380008091B1008460F4
:101150008093B1008091B00081608093B000809155
:101160007A00846080937A0080917A008260809314
:101170007A0080917A00816080937A0080917A0071
:10118000806880937A001092C100E0918F02F09104
:10119000900282E08083E0918B02F0918C021082B9
:1011A000E0918D02F0918E0280E18083109297028F
:1011B000E0919302F091940286E08083E0919102A5
:1011C000F0919202808180618083E0919102F091A0
:1011D0009202808188608083E0919102F091920276
:1011E000808180688083E0919102F09192028081F9
:1011F0008F7D808364EF71E080E090E00E94FA00D0
:1012000010920E0210920D021092100210923202F1
:101210000E9462028CE291E09093030280930202AA
:101220008DE291E0909301028093000280E00E94A1
:10123000FF05823321F087E291E00E947E0500E005
:1012400010E022E333E040E353E06EE273E085E434
:101250000E948A0586E491E00E947E058DE591E07A
:101260000E94F5046AE070E080912E0390912F03B4
:101270000E944A0581E691E00E94F5046AE070E070
:1012800080913003909131030E944A0585E691E0F8
:101290000E94F5046AE070E080913203909133037C
:1012A0000E944A050E9402052AE333E04CE253E023
:1012B0006AE273E085E50E948A0589E691E00E9472
:1012C0007E0588E791E00E94F5046AE070E0809175
:1012D0002A0390912B030E944A0580E891E00E9426
:1012E000F5046AE070E080912C0390912D030E9438
:1012F0004A0587E891E00E94F5046AE070E0809179
:101300003A0390913B030E944A050E94020586E73A
:101310000E94DF0461E070E080E090E00E94FA004B
:1013200085E70E94DF0461E070E080E090E00E94C9
:10133000FA0083E80E94DF0461E070E080E090E062
:101340000E94FA0084E80E94DF0464E170E080E01B
:1013500090E00E94FA0082E70E94DF0461E070E002
:1013600080E090E00E94FA0085E60E94DF0461E0E0
:1013700070E080E090E00E94FA0061E080913C0320
:101380000E94A10210920E0280930D028CE193E064
:101390000E947004C82F85E991E00E94F5046C2F2B
:1013A00070E090E080E042E00E9406050E940205A5
:1013B00086E00E94FF05C82FD0E06AE070E080E080
:1013C00090E00E94FA0087E00E94FF05D82B6AE0B7
:1013D00070E080E090E00E94FA0081EA91E00E94D3
:1013E000F50460E170E0CE010E944A050E9402050A
:1013F00080913C0391E090930F0280933102109210
:1014000010021092320261EF8CE193E00E94B0046E
:1014100064E18CE193E00E94B00460E08CE193E031
:101420000E94B00481E00E9470036AE070E080E0F6
:1014300090E00E94FA0060ED77E080E090E00E948A
:10144000FA000115110509F4FCCE0E9498018823C9
:1014500009F4F7CE0E940000F4CEA1E21A2EAA1BD6
:10146000BB1BFD010DC0AA1FBB1FEE1FFF1FA21754
:10147000B307E407F50720F0A21BB30BE40BF50B51
:10148000661F771F881F991F1A9469F760957095DA
:10149000809590959B01AC01BD01CF010895EE0FA1
:1014A000FF1F0590F491E02D0994F894FFCF000000
:1014B0000000CE012E015B011B028C016A017E013E
:1014C00000000000B0048304F20460048200700491
:1014D00061040D0A0053656E736F7220496E697462
:1014E00069616C697A6174696F6E204661696C65C7
:1014F000640A0D00526177204D61676E65746F6DEF
:101500006574657220446174613A00583A2000594C
:101510003A20005A3A20005261772054696C7420B6
:10152000446174613A0050697463683A2000526FF4
:101530006C6C3A200054656D7065726174757265EB
:101540003A20004F50204D6F646520313A2000480A
:101550004D43363334332049432053657269616CFF
:0A156000204E756D6265723A20009E
:107800000C94343C0C94513C0C94513C0C94513CE1
:107810000C94513C0C94513C0C94513C0C94513CB4
:107820000C94513C0C94513C0C94513C0C94513CA4
:107830000C94513C0C94513C0C94513C0C94513C94
:107840000C94513C0C94513C0C94513C0C94513C84
:107850000C94513C0C94513C0C94513C0C94513C74
:107860000C94513C0C94513C11241FBECFEFD8E036
:10787000DEBFCDBF11E0A0E0B1E0ECE9FFE702C060
:1078800005900D92A230B107D9F712E0A2E0B1E065
:1078900001C01D92AD30B107E1F70E942D3D0C945F
:1078A000CC3F0C94003C982F959595959595959582
:1078B000905D8F708A307CF0282F295A8091C0000B
:1078C00085FFFCCF9093C6008091C00085FFFCCF60
:1078D0002093C6000895282F205DF0CF982F809127
:1078E000C00085FFFCCF9093C6000895EF92FF92F1
:1078F0000F931F93EE24FF2487018091C00087FD22
:1079000017C00894E11CF11C011D111D81E4E8164B
:1079100082E4F8068FE0080780E0180770F3E09132
:107920000401F091050109958091C00087FFE9CF1E
:107930008091C6001F910F91FF90EF9008950E94D3
:10794000763C982F8091C00085FFFCCF9093C600B5
:1079500091362CF490330CF09053892F089597555D
:10796000892F08951F930E949F3C182F0E949F3CCF
:107970001295107F810F1F9108951F93182F882350
:1079800021F00E94763C1150E1F71F9108951F935A
:10799000182F0E94763C803249F0809103018F5F5E
:1079A000809303018530C1F01F9108958091C0003C
:1079B00085FFFCCF84E18093C6008091C00085FFE5
:1079C000FCCF1093C6008091C00085FFFCCF80E102
:1079D0008093C6001F910895E0910401F091050184
:1079E00009951F9108950E94763C803241F0809164
:1079F00003018F5F80930301853081F008958091AA
:107A0000C00085FFFCCF84E18093C6008091C00058
:107A100085FFFCCF80E18093C6000895E0910401CA
:107A2000F09105010995089540E951E08823A1F0FE
:107A30002D9A28EE33E0FA013197F1F721503040CA
:107A4000D1F72D9828EE33E0FA013197F1F7215064
:107A50003040D1F7815061F708953F924F925F9285
:107A60006F927F928F929F92AF92BF92CF92DF924E
:107A7000EF92FF920F931F93CF93DF93000080E16B
:107A80008093C4001092C50088E18093C10086E015
:107A90008093C2005098589A259A81E00E94143D24
:107AA00024E1F22E9EE1E92E85E9D82E0FE0C02ECA
:107AB00010E1B12EAA24A394B1E49B2EA6E58A2E50
:107AC000F2E57F2EE0E26E2E79E4572E63E5462E36
:107AD00050E5352E0E94763C8033B1F18133B9F107
:107AE000803409F46FC0813409F476C0823409F41B
:107AF00085C0853409F488C0803531F1823521F1A3
:107B0000813511F1853509F485C0863509F48DC0BC
:107B1000843609F496C0843709F403C1853709F423
:107B200072C1863709F466C0809103018F5F80932C
:107B30000301853079F6E0910401F0910501099582
:107B40000E94763C803351F60E94F33CC3CF0E94E2
:107B5000763C803249F78091C00085FFFCCFF092DF
:107B6000C6008091C00085FFFCCF9092C600809136
:107B7000C00085FFFCCF8092C6008091C00085FFC9
:107B8000FCCF7092C6008091C00085FFFCCF609250
:107B9000C6008091C00085FFFCCF5092C600809146
:107BA000C00085FFFCCF4092C6008091C00085FFD9
:107BB000FCCF3092C6008091C00085FFFCCFB09210
:107BC000C60088CF0E94763C863808F4BDCF0E945C
:107BD000763C0E94F33C7ECF0E94763C803809F4CC
:107BE0009CC0813809F40BC1823809F43CC1883942
:107BF00009F48FC080E00E94C73C6CCF84E10E94F2
:107C0000BD3C0E94F33C66CF85E00E94BD3C0E94D3
:107C1000F33C60CF0E94763C809306010E94763C44
:107C2000809307010E94F33C55CF0E94763C80333D
:107C300009F41DC183E00E94BD3C80E00E94C73C66
:107C400049CF0E94763C809309020E94763C809343
:107C5000080280910C028E7F80930C020E94763C79
:107C6000853409F415C18091080290910902892B8D
:107C700089F000E010E00E94763CF801E85FFE4FDA
:107C800080830F5F1F4F80910802909109020817AF
:107C9000190788F30E94763C803209F045CF809125
:107CA0000C0280FF01C16091060170910701660F0F
:107CB000771F7093070160930601A0910802B091AD
:107CC00009021097C9F0E8E0F1E09B01AD014E0F09
:107CD0005F1FF999FECF32BD21BD819180BDFA9A17
:107CE000F99A2F5F3F4FE417F50799F76A0F7B1F4B
:107CF00070930701609306018091C00085FFFCCF5F
:107D0000F092C6008091C00085FFFCCFB092C60003
:107D1000E1CE83E00E94C73CDDCE82E00E94C73CFA
:107D2000D9CE0E94763C809309020E94763C8093D3
:107D300008028091060190910701880F991F909386
:107D40000701809306010E94763C853409F4A6C0A1
:107D500080910C028E7F80930C020E94763C8032D0
:107D600009F0B8CE8091C00085FFFCCFF092C6002C
:107D7000609108027091090261157105B9F140E046
:107D800050E080910C02A82FA170B82FB27011C0E2
:107D9000BB2309F45CC0E0910601F0910701319624
:107DA000F0930701E09306014F5F5F4F46175707B7
:107DB000E8F4AA2369F3F999FECF209106013091E6
:107DC000070132BD21BDF89A90B58091C00085FFB2
:107DD000FCCF9093C6002F5F3F4F30930701209355
:107DE00006014F5F5F4F4617570718F38091C00099
:107DF00085FDE5CE8091C00085FFF8CFE0CE81E023
:107E00000E94C73C67CE0E94763C803209F08CCE3F
:107E10008091C00085FFFCCFF092C6008091C00029
:107E200085FFFCCFE092C6008091C00085FFFCCFAB
:107E3000D092C6008091C00085FFFCCFC092C600E2
:107E40008091C00085FFFCCFB092C60043CEE09188
:107E50000601F091070194918091C00085FFFCCF4D
:107E60009093C6009CCF80E10E94C73C33CE0E9415
:107E7000763C0E94763C182F0E94763C112309F430
:107E800083C0113009F484C08FE00E94C73C22CE29
:107E900080910C02816080930C02E5CE80910C02EF
:107EA000816080930C0259CF809107018823880F4D
:107EB000880B8A2180930B02809106019091070123
:107EC000880F991F90930701809306018091080203
:107ED00080FF09C080910802909109020196909359
:107EE000090280930802F894F999FECF1127E091D6
:107EF0000601F0910701C8E0D1E08091080290915D
:107F00000902103091F40091570001700130D9F34B
:107F100003E000935700E89500915700017001308D
:107F2000D9F301E100935700E89509901990009169
:107F3000570001700130D9F301E000935700E89534
:107F40001395103498F011270091570001700130FB
:107F5000D9F305E000935700E895009157000170B0
:107F60000130D9F301E100935700E895329602976A
:107F700009F0C7CF103011F00296E5CF112480919F
:107F8000C00085FFB9CEBCCE8EE10E94C73CA2CD19
:0E7F900085E90E94C73C9ECDF894FFCF80008B
:00000001FF
