:020000040000FA
:100000000C94AD000C94D5000C94D5000C94D50044
:100010000C94D5000C94D5000C94D5000C94D5000C
:100020000C94D5000C94D5000C94D5000C94860C3F
:100030000C94D5000C94D5000C94D5000C94D500EC
:100040000C94E40B0C94D5000C94540C0C942E0CD2
:100050000C94D5000C94D5000C94D5000C94D500CC
:100060000C94D5000C94D50005A84CCDB2D44EB953
:100070003836A9020C50B9918688083CA6AAAA2A4B
:10008000BE000000803F07634236B79BD8A71A39ED
:10009000685618AEBAAB558C1D3CB7CC5763BD6DD6
:1000A000EDFD753EF6177231BF000000803F08007D
:1000B0000000BE922449123EABAAAA2ABECDCCCCE7
:1000C0004C3E00000080BEABAAAAAA3E0000000081
:1000D000BF000000803F0000000000084178D3BB53
:1000E0004387D1133D190E3CC3BD4282AD2B3E6800
:1000F000EC8276BED98FE1A93E4C80EFFFBE01C4F1
:10010000FF7F3F0000000000000000080002010027
:1001100000030407000000000000000000000000D1
:10012000250028002B0000000000240027002A00E2
:10013000040404040404040402020202020203038D
:100140000303030301020408102040800102040895
:100150001020010204081020420D11241FBECFEF11
:10016000D8E0DEBFCDBF11E0A0E0B1E0EEEEFCE2F2
:1001700002C005900D92AA31B107D9F722E0AAE199
:10018000B1E001C01D92A236B207E1F710E0CDEA5E
:10019000D0E004C02197FE010E944816CC3AD10756
:1001A000C9F70E94FE0D0C9475160C94000090E0A7
:1001B000FC01EC5BFE4F2491805D9E4FFC0184911D
:1001C000882399F090E0880F991FFC01EA5DFE4FAB
:1001D000A591B491FC01E45EFE4F859194918FB797
:1001E000F894EC91E22BEC938FBF089590E0FC0122
:1001F000E85FFE4F2491FC01EC5BFE4F3491FC0163
:10020000E05DFE4FE491EE23C9F0222339F0233064
:1002100001F1A8F4213019F1223029F1F0E0EE0FBC
:10022000FF1FE45EFE4FA591B4918FB7F894EC9157
:10023000611126C030953E233C938FBF089527302F
:10024000A9F02830C9F0243049F7809180008F7DD3
:1002500003C0809180008F7780938000DFCF84B5CA
:100260008F7784BDDBCF84B58F7DFBCF8091B000CD
:100270008F778093B000D2CF8091B0008F7DF9CF7F
:100280003E2BDACF3FB7F89480913E0190913F0129
:10029000A0914001B091410126B5A89B05C02F3F18
:1002A00019F00196A11DB11D3FBFBA2FA92F982F9C
:1002B0008827BC01CD01620F711D811D911D42E097
:1002C000660F771F881F991F4A95D1F708952FB79A
:1002D000F89460913A0170913B0180913C019091BA
:1002E0003D012FBF0895AF92BF92CF92DF92EF9260
:1002F000FF920F931F93CF93DF936C017B018B01D0
:10030000040F151FEB015E01AE18BF08C017D1071F
:1003100059F06991D601ED91FC910190F081E02DA9
:10032000C6010995892B79F7C501DF91CF911F91FE
:100330000F91FF90EF90DF90CF90BF90AF90089516
:10034000FC01538D448D252F30E0842F90E0821BDB
:10035000930B541710F0CF96089501970895FC0160
:10036000918D828D981761F0A28DAE0FBF2FB11DB8
:100370005D968C91928D9F5F9F73928F90E0089510
:100380008FEF9FEF0895FC01918D828D981731F0CA
:10039000828DE80FF11D858D90E008958FEF9FEF1E
:1003A0000895FC01918D228D892F90E0805C9F4FF4
:1003B000821B91098F739927089589E891E00E9423
:1003C000D10121E0892B09F420E0822F089580E0FB
:1003D00090E0892B29F00E94DD0181110C9400002E
:1003E00008958F929F92AF92BF92FF920F931F93A7
:1003F000CF93DF93EC014A015B01F22EE889F98982
:1004000082E08083EC85FD8510820E851F8560E08B
:1004100079E08DE390E0A50194010E94A0112150A4
:100420003109410951095695479537952795F801A6
:100430002083188EEC89FD89F082EA89FB8980810E
:1004400080618083EA89FB89808188608083EA8972
:10045000FB89808180688083EA89FB8980818F7D28
:100460008083DF91CF911F910F91FF90BF90AF904C
:100470009F908F900895FC01A48DA80FB92FB11DF6
:10048000A35ABF4F2C91848D90E001968F739927CA
:10049000848FA689B7892C93A089B1898C918370A8
:1004A00080648C93938D848D981306C00288F389A1
:1004B000E02D80818F7D80830895EF92FF920F93CE
:1004C0001F93CF93DF93EC0181E0888F9B8D8C8D00
:1004D00098131AC0E889F989808185FF15C09FB7F4
:1004E000F894EE89FF896083E889F98980818370B7
:1004F000806480839FBF81E090E0DF91CF911F9166
:100500000F91FF90EF900895F62E0B8D10E00F5F86
:100510001F4F0F731127E02E8C8D8E110CC00FB65C
:1005200007FCFACFE889F989808185FFF5CFCE01F4
:100530000E943B02F1CFEB8DEC0FFD2FF11DE35A32
:10054000FF4FF0829FB7F8940B8FEA89FB89808177
:100550008062CFCFCF93DF93EC01888D8823B9F0F1
:10056000AA89BB89E889F9898C9185FD03C08081BE
:1005700086FD0DC00FB607FCF7CF8C9185FFF2CF3B
:10058000808185FFEDCFCE010E943B02E9CFDF9154
:10059000CF91089589E891E00E94AA02E9E8F1E08C
:1005A000A289B3898C918F7E8C93A289B3898C9117
:1005B000877F8C93A289B3898C918F778C93A28942
:1005C000B3898C918F7D8C93828D818F0895CF928A
:1005D000DF92EF92FF92CF93DF93EC01603282E0E3
:1005E0007807CCF5653B710514F064EB70E0898108
:1005F00028E830E0281B310987FD3395220F331F8F
:10060000220F331F6901330FEE08FF088A8128E5A6
:1006100032E0281B310987FD3395220F331F220F4B
:10062000331F032E000C440B550B2C193D094E09AA
:100630005F09DB0177FF02C0B0E0A0E00E949811E3
:1006400024EB30E040E050E00E946E11C20ED31E59
:10065000E41EF51EB601E881EC3070F5298188E8CA
:1006600090E0821B910927FD9395880F991F880FB1
:10067000991F681779077CF02A8188E592E0821B30
:10068000910927FD9395880F991F880F991F681767
:1006900079070CF4CB010297880F991F4FB7F89494
:1006A0002E2F30E0F901EE0FFF1FE20FF31FEE5B7C
:1006B000FE4F928381834FBFDF91CF91FF90EF90E8
:1006C000DF90CF900895892B79F41092800082E01A
:1006D000809381001092850010928400B19A8091DD
:1006E0006F00826080936F000895FC0101900020EC
:1006F000E9F73197AF01481B590BBC0189E891E03C
:100700000C9473018F929F92AF92BF920F931F939D
:10071000CF93DF93CDB7DEB7A1970FB6F894DEBFC6
:100720000FBECDBF19A2423008F44AE08E010F5D22
:100730001F4F842E912CB12CA12CA50194010E9455
:10074000A011E62FB901CA01EA30F4F4E05DD80146
:10075000EE938D01232B242B252B79F790E080E05D
:10076000109719F0CD010E947503A1960FB6F89469
:10077000DEBF0FBECDBFDF91CF911F910F91BF9014
:10078000AF909F908F900895E95CE1CFCF92DF9278
:10079000EF92FF92CF93DF936B017C016DE289E8CA
:1007A00091E00E945D02EC0166277727CB016C196E
:1007B0007D098E099F094AE00E9482038C0F9D1FCC
:1007C000DF91CF91FF90EF90DF90CF9008958F92BF
:1007D0009F92AF92BF92CF92DF92EF92FF92CF9310
:1007E000C42F9B01AC010E94D2116B017C016C2FC4
:1007F00070E090E080E00E94F0124B015C0120E08C
:1008000030E040E85FE3C701B6010E943E1287FF77
:1008100016C0A5019401C701B6010E944E1420E044
:1008200030E040E05FE30E94E113CF91FF90EF9052
:10083000DF90CF90BF90AF909F908F900895A701C9
:10084000960160E070E080E090E40E94D111A50183
:1008500094010E944E149F7720E030E040E05FE377
:100860000E94E1139B01AC0160E070E080E89FE32F
:100870000E94D111DACF8F929F92AF92BF92CF9206
:10088000DF92EF92FF92CF93DF936B017C01EA013D
:1008900020E030E0A9010E943E12882309F467C1DC
:1008A00020E030E040E85FE3C701B6010E943E125D
:1008B000882309F45CC1FE013297EE31F10508F09E
:1008C00056C1EB59FB4F0C944816830488049F04CF
:1008D000AE04C004CF04D104D604E304E504EA0462
:1008E000F704F904040518052F05440553059B0575
:1008F000C405E405220658068506F50610072F07ED
:1009000081078E070208A7019601C701B601A4C09E
:10091000A701960160E070E080E89FE30E94D1119A
:100920009B01AC010E94E1139B01AC0160E070E00F
:1009300080E89FE30E94D1116B017C0118C142E065
:10094000C701B601DF91CF91FF90EF90DF90CF907C
:10095000BF90AF909F908F900C94E70320E030E021
:1009600040E450E4C701B601DF91CF91FF90EF90D2
:10097000DF90CF90BF90AF909F908F900C944E14CB
:10098000A701960160E070E080E89FE30E94D1112A
:1009900020E030E040E450E40E944E14C5CF43E034
:1009A000CFCF20E030E040E850E4DCCFA701960153
:1009B00060E070E080E89FE30E94D11120E030E029
:1009C00040E850E4E9CF44E0BBCF20E030E040EA2B
:1009D00050E4C8CFA701960160E070E080E89FE393
:1009E0000E94D11120E030E040EA50E4D5CF45E04C
:1009F000A7CF2BED3FE049EC5FE3C701B6010E94B2
:100A0000E1130E94431290CF2BED3FE049EC5FE3EE
:100A1000C701B6010E94E113DF91CF91FF90EF90E3
:100A2000DF90CF90BF90AF909F908F900C949E14CA
:100A30002BED3FE049E450E4C701B6010E94E11309
:100A40000E94431220E030E040E85FE30E94D111B1
:100A500020E030E040E05FEB0E94E1136DCF20E04A
:100A600030E040E85FE3C701B6010E94D11120E009
:100A700030E040E251E40E94E1139B01AC0160E0F0
:100A800070E080E090E470CF20E030E040E251EC94
:100A9000C701B6010E94E1139B01AC0160E070E068
:100AA00080E090E479CFA7019601C701B6010E94CA
:100AB000D2114B015C0120E030E040E85FE30E948E
:100AC000D1116B017C0120E030E040E85FE3C5011B
:100AD000B4010E943E1287FF15C020E030E040E2E2
:100AE00051E4C701B6010E94E1139B01AC0160E033
:100AF00070E080E090E40E944E1420E030E040E09E
:100B00005FE3AACF20E030E040E251ECC701B6013C
:100B10000E94E1139B01AC0160E070E080E090E492
:100B20000E944E149B01AC0160E070E080E090E414
:100B30000E94D111E2CFA7019601C701B6010E9420
:100B4000E1139B01AC0160E070E080E89FE30E944C
:100B5000D1110E94AC1420E030E040E85FE30E9435
:100B6000D1116B017C01F7FAF094F7F8F094C7010A
:100B7000B601DF91CF91FF90EF90DF90CF90BF90C3
:100B8000AF909F908F90089520E030E040E85FE3C1
:100B9000C701B6010E94D1119B01AC010E94E11373
:100BA0009B01AC0160E070E080E89FE30E94D111FE
:100BB000DF91CF91FF90EF90DF90CF90BF90AF90FB
:100BC0009F908F900C94AC14A7019601C701B601B9
:100BD0000E94D2116B017C0120E030E040E85FE32D
:100BE0000E943E1287FF11C0A7019601C701B601FE
:100BF0000E94E1139B01AC0160E070E080E89FE39C
:100C00000E94D1110E94AC141DCF20E030E040E0E2
:100C100050E4C701B6010E94D1119B01AC010E94B2
:100C2000E1139B01AC0160E070E080E89FE30E946B
:100C3000D1110E94AC1420E030E040E85FE30E9454
:100C4000D2115BCF20E030E040E85FE3C701B6019E
:100C50000E94D1114B015C0120E030E040E251E400
:100C60000E94E1139B01AC0160E070E080E090E441
:100C70000E944E146B017C0127E636E646EE5DE3EA
:100C8000C501B4010E94D1112BED3FE049EC50E4C5
:100C90000E94E11327E636E646EE5EE30E94481224
:100CA0000E949E149B01AC01C701B6019058D4CE9E
:100CB00020E030E040E251ECC701B6010E94E113B0
:100CC0009B01AC0160E070E080E090E40E944E1473
:100CD0004B015C012AE939E949E95DE3C701B60145
:100CE0000E94D1112BED3FE049EC50E40E94E1134A
:100CF0002AE939E949E95EE30E9448120E949E14FC
:100D00009B01AC01C501B40167C0A7019601C701F1
:100D1000B6010E94D21120E030E040E85FE30E947B
:100D2000D1116B017C0127E636E646EE5DE30E94B9
:100D3000D1112BED3FE049EC50E40E94E11327E68E
:100D400036E646EE5EE30E9448120E949E144B0176
:100D50005C0120E030E040E85FE3C701B6010E949B
:100D6000D21120E030E040E85FE30E943E1287FFAE
:100D700019C020E030E040E251E4C701B6010E9412
:100D8000E1139B01AC0160E070E080E090E40E9420
:100D90004E1420E030E040E05FEB0E94E113A5013B
:100DA00094015ACE20E030E040E251ECC701B60198
:100DB0000E94E1139B01AC0160E070E080E090E4F0
:100DC0000E944E149B01AC01C501B4010E94E113C5
:100DD00020E030E040E05FE30E94E11320E030E0FB
:100DE00040E85FE30E94D211A7CD20EB36EE4CE243
:100DF00050E4C701B6010E94E11320E63DEC49ED45
:100E00005FE30E94D1114B015C01A7019601C7016C
:100E1000B6010E94E1139B01AC01C501B4011CCED7
:100E200020E030E040E85FE3C701B6010E94D11145
:100E30006B017C0120EB36EE4CE250E40E94E113A2
:100E400020E63DEC49ED5FE30E94D2114B015C01CD
:100E5000A7019601C701B6010E94E11351CFA70176
:100E60009601C701B6010E94D2116B017C0120E0FE
:100E700030E040E85FE30E943E1287FF1DC020E0A3
:100E800030E040E05FE3C701B6010E94E113A70133
:100E900096010E94E1134B015C012FEF32E146E61F
:100EA00050E4C701B6010E94E1132FEF32E146E2A0
:100EB00050E40E94D111AFCF20E030E040E050E498
:100EC000C701B6010E94D1116B017C0120E030E026
:100ED00040E05FE30E94E113A70196010E94E11345
:100EE0004B015C012FEF32E146E650E4C701B60149
:100EF0000E94E1132FEF32E146E250E40E94D2114A
:100F0000FFCEA701960160E070E080E89FE30E94B9
:100F1000D1114EE150E00E943B0406CD2CE83EE2A8
:100F20004AEB5EE3C701B6010E943E1287FF0BC089
:100F300020E030E042EF50E4C701B6010E94E11327
:100F40009B01AC01E2CC2CE83EE24AE35FE3C7013F
:100F5000B6010E943E1287FF19C029EE32EA4BE02B
:100F60005FE3C701B6010E94D1116B017C0120E053
:100F700030E042EF50E40E94E113A70196010E9485
:100F8000E11320E030E040E45FE32CCF2FE23AEBC6
:100F900048E65FE3C701B6010E943E1287FF19C011
:100FA0002DE534E741E55FE3C701B6010E94D111A9
:100FB0006B017C0120E030E042EF50E40E94E1133D
:100FC000A70196010E94E11320E030E040E75FE3D3
:100FD00009CF27E13DE544E75FE3C701B6010E9481
:100FE000D1116B017C0120E030E042EF50E40E941F
:100FF000E113A70196010E94E11320E030E04CE7E5
:101000005FE3F0CEA7019601C701B6010E94D2119D
:101010004B015C0120E030E040E05FE3C701B60136
:101020000E943E1287FF07C04DE150E0C501B401A8
:101030000E943B0462CD20E030E040E85FE3C50160
:10104000B4010E94D1114EE150E00E943B0420E027
:1010500030E040E05FE30E94E11320E030E040E058
:101060005FE3C0CE2F923F924F925F926F927F923A
:101070008F929F92AF92BF92CF92DF92EF92FF92A8
:101080000F931F93CF93DF93CDB7DEB762970FB661
:10109000F894DEBF0FBECDBF80917B018111C8C027
:1010A0004090730150907401712C612C60E070E0ED
:1010B000CB0121E000917F01109180011A8B098BF7
:1010C000012B09F4ABC1222309F4A8C160936F017D
:1010D000709370018093710190937201209081014F
:1010E0003090820180917C01811172C020916B014E
:1010F00030916C0140916D0150916E012D873E87BA
:101100004F87588B2114310409F4B1C031E0231604
:10111000310409F409C10091790110917A011A830F
:1011200009832D853E854F855889232B242B252B1C
:1011300009F45CC1E0907701F0907801E016F106C7
:1011400009F454C16091670170916801809169014F
:1011500090916A010E94F0124B015C016D857E85C1
:101160008F8598890E94F0129B01AC01C501B401E2
:101170000E9448122B013C01B7010F2C000C880B78
:10118000990B0E94F2124B015C0149895A89C301F3
:10119000B2010E151F050CF40FC10E943B042B0178
:1011A0003C01B8016E197F09072E000C880B990BC2
:1011B0000E94F212A30192010E94E113A501940181
:1011C0000E94D2110E94BA12709376016093750149
:1011D0002114310409F011C1409167015091680157
:1011E0006091690170916A0180916B0190916C012D
:1011F000A0916D01B0916E01481759076A077B07EE
:1012000009F00CC180917D0190917E0182309105A1
:1012100009F429C108F022C1019709F0FFC010921A
:101220006701109268011092690110926A01F6C07C
:101230000E946701C0906F01D0907001E090710131
:10124000F09072012B013C014C185D086E087F087C
:10125000C0907301D0907401F12CE12C21E04C146A
:101260005D046E047F0408F025CF20E023CF409179
:101270006701509168016091690170916A01498725
:101280005A876B877C879A0189019B016B833C831A
:10129000530198014B815C8160E070E080E090E058
:1012A0006B82BC825201CB80DC80E12CF12C00E00F
:1012B00010E00E944E16F9010D851E852F85388994
:1012C00048015901C12CD12C76019F01AB82BC820F
:1012D000CD82DE82EF82F8865401CB80DC80E12C67
:1012E000F12C00E010E00E9460168CF429853A850C
:1012F0004B855C85420E531E641E751E409267012D
:10130000509268016092690170926A0104CF4D8524
:101310005E856F857889409367015093680160937B
:10132000690170936A01F7CE60916701709168015D
:101330008091690190916A0169877A878B879C8780
:101340009C018B833C835301C12CD12C76019B01E2
:101350004B815C8160E070E080E090E06B82BC8259
:10136000CD82DE82EF82F8865201CB80DC80E12CD8
:10137000F12C00E010E00E945716A0E00E946916D0
:1013800091F08CF089859A85AB85BC858419950987
:10139000A609B7098093670190936801A09369013A
:1013A000B0936A01B8CE1092670110926801109252
:1013B000690110926A01AFCE0E943B042B013C01EF
:1013C000B70109811A81601B710B072E000C880B75
:1013D000990B0E94F212A30192010E94E1139B015A
:1013E000AC01C501B4010E94D111ECCE09811A8172
:1013F0001093760100937501EBCE11E021163104B4
:1014000069F48091670190916801A0916901B091A0
:101410006A01892B8A2B8B2B09F4F4CE609175011C
:101420007091760183E891E062960FB6F894DEBF82
:101430000FBECDBFDF91CF911F910F91FF90EF9025
:10144000DF90CF90BF90AF909F908F907F906F90E4
:101450005F904F903F902F900C94E702843091055D
:1014600069F00597D9F621143104C9F02A9423288C
:10147000A9F61092820110928101D0CF80916B0168
:1014800090916C01A0916D01B0916E018093670104
:1014900090936801A0936901B0936A01BFCF81E086
:1014A00090E09093820180938101B8CF7F928F92D8
:1014B0009F92AF92BF92CF92DF92EF92FF920F93E3
:1014C0001F93CF93DF93782E209128023091290229
:1014D000032E000C440B550B2C5631404109510989
:1014E000A8ECB0E00E948D1128E235E040E050E029
:1014F0000E946E1169017A0184E6C81AD108E108D8
:10150000F108CAE5D0E02EE7C2162FEFD206C4F0EC
:1015100096010D2C000C440B550B2C593F4F4F4F8F
:101520005F4FAAE5B0E00E948D1128EC30E040E06A
:1015300050E00E946E11235D3F4F4F4F5F4FE90116
:101540000091750110917601B8016C1B7D0B161688
:1015500017060CF074C0072E000C880B990B0E9424
:10156000F21220E030E04AE754E40E94E11320E068
:1015700030E040EA52E40E9448120E94C1124B013E
:101580005C01772009F45FC0109378010093770124
:10159000D0937A01C09379011092800110927F015B
:1015A00010926B0110926C0110926D0110926E01FD
:1015B0000E94670160936F017093700180937101C5
:1015C000909372018091790190917A0190937601C4
:1015D0008093750110926701109268011092690161
:1015E00010926A01109282011092810110927E0184
:1015F00010927D0110927C010E9432080E944201EB
:101600006B017C0181149104A104B10409F4CEC0E2
:101610000E9442016C197D098E099F09683E734042
:101620008105910578F331E0831A9108A108B1088A
:1016300088EEC80E83E0D81EE11CF11CE3CFBE018A
:10164000601B710B88CF809100019E01281B31091E
:10165000C90137FF03C091958195910902970CF458
:1016600040C01093780100937701D0937A01C09322
:10167000790181E090E09093800180937F018092D6
:101680006B0190926C01A0926D01B0926E010E946C
:10169000670160936F017093700180937101909363
:1016A000720189288A288B2841F4809179019091D0
:1016B0007A019093760180937501109267011092E0
:1016C00068011092690110926A01109282011092D1
:1016D000810110927E0110927D0110927C01C093D5
:1016E00000010E94CA0226E040E052EC61E070E096
:1016F00089E891E00E94F101F7FE52C0C701B601EE
:101700000E94C60385E191E00E947503BE01DD0FD2
:10171000880B990B4AE00E94820387E191E00E94C6
:1017200075030E94CA02E8E2F2E08CE492E01192B2
:1017300011928E179F07D9F710924E0210924F0206
:1017400010925002109251021092520210925302C3
:1017500010925402109255021092560210925702A3
:10176000109258021092590210924D0210924C029F
:101770002EE240EA56E861E070E080912602909106
:101780002702DF91CF911F910F91FF90EF90DF9093
:10179000CF90BF90AF909F908F907F900C94F1016D
:1017A0004AE0C701B6010E948203ACCFDF91CF911E
:1017B0001F910F91FF90EF90DF90CF90BF90AF906F
:1017C0009F908F907F9008951F920F920FB60F9267
:1017D00011242F933F938F939F93AF93BF93809147
:1017E0003A0190913B01A0913C01B0913D013091B3
:1017F000390123E0230F2D3758F50196A11DB11DA6
:101800002093390180933A0190933B01A0933C01CE
:10181000B0933D0180913E0190913F01A091400124
:10182000B09141010196A11DB11D80933E0190939D
:101830003F01A0934001B0934101BF91AF919F91AF
:101840008F913F912F910F900FBE0F901F90189581
:1018500026E8230F0296A11DB11DD2CF1F920F9231
:101860000FB60F9211242F933F934F935F936F9373
:101870007F938F939F93AF93BF93EF93FF9389E8E9
:1018800091E00E943B02FF91EF91BF91AF919F9138
:101890008F917F916F915F914F913F912F910F9019
:1018A0000FBE0F901F9018951F920F920FB60F92B8
:1018B00011242F938F939F93EF93FF93E0919901BE
:1018C000F0919A018081E0919F01F091A00182FD49
:1018D0001BC090818091A2018F5F8F732091A30123
:1018E000821741F0E091A201F0E0E757FE4F958F9B
:1018F0008093A201FF91EF919F918F912F910F9073
:101900000FBE0F901F9018958081F4CF1F920F92F9
:101910000FB60F9211242F933F934F935F936F93C2
:101920007F938F939F93AF93BF93CF93DF93EF9367
:10193000FF9380911A01C0916601D0E087FF24C017
:10194000109285001092840080911A018F5F80931D
:101950001A0180911A01082E000C990B8C179D0713
:1019600024F480911A018C30C4F18091840090910C
:101970008500049680349C4908F47AC080918400E4
:1019800090918500049676C080911A01082E000C73
:10199000990B8C179D07C4F6E0911A018E2FEE0F5C
:1019A000990BFC01EE0FFF1FE80FF91FEE5BFE4FD6
:1019B000808186FFC9CFE0911A018E2FEE0F990B1F
:1019C000FC01EE0FFF1FE80FF91FEE5BFE4F808159
:1019D00060E08F730E94F600B7CF209184003091B1
:1019E0008500E0911A018E2FEE0F990BFC01EE0F8E
:1019F000FF1FE80FF91FEE5BFE4F81819281820F7E
:101A0000931F9093890080938800E0911A018E2F94
:101A1000EE0F990BFC01EE0FFF1FE80FF91FEE5BB5
:101A2000FE4F808186FF11C0E0911A018E2FEE0FCC
:101A3000990BFC01EE0FFF1FE80FF91FEE5BFE4F45
:101A4000808161E08F730E94F600FF91EF91DF913A
:101A5000CF91BF91AF919F918F917F916F915F9146
:101A60004F913F912F910F900FBE0F901F9018959F
:101A700080E49CE990938900809388008FEF8093A5
:101A80001A01E3CF10928C0110928B0188EE93E043
:101A9000A0E0B0E080938D0190938E01A0938F0120
:101AA000B093900187E091E090938A01809389013F
:101AB00085EC90E0909396018093950184EC90E002
:101AC000909398018093970180EC90E090939A0115
:101AD0008093990181EC90E090939C0180939B010D
:101AE00082EC90E090939E0180939D0186EC90E0C3
:101AF0009093A00180939F011092A2011092A301E4
:101B00001092A4011092A50189E891E09093270218
:101B100080932602809166018C3008F067C091E0C6
:101B2000980F909366018093860190E0FC01EE0F80
:101B3000FF1FE80FF91FEE5BFE4F88EB9BE09283DF
:101B40008183809166018C3008F054C091E0980F39
:101B5000909366018093830190E0FC01EE0FFF1FDC
:101B6000E80FF91FEE5BFE4F88EB9BE092838183C9
:101B7000109278011092770110927A0110927901F7
:101B800010927601109275011092800110927F01DF
:101B90000E94670160936F017093700180937101DF
:101BA0009093720110926B0110926C0110926D0172
:101BB00010926E01109267011092680110926901F3
:101BC00010926A018AE090E090937401809373010F
:101BD00010927E0110927D0110928201109281017B
:101BE00010927C0181E080937B0108958FEF8093B8
:101BF0008601A7CF8FEF80938301BACF789484B505
:101C0000826084BD84B5816084BD85B5826085BDF8
:101C100085B5816085BD80916E00816080936E0086
:101C20001092810080918100826080938100809178
:101C30008100816080938100809180008160809329
:101C400080008091B10084608093B1008091B000E9
:101C500081608093B00080917A00846080937A00E4
:101C600080917A00826080937A0080917A0081600E
:101C700080937A0080917A00806880937A00109235
:101C8000C100E8E2F2E08CE492E0119211928E172A
:101C90009F07D9F710924E0210924F0210925002F5
:101CA000109251021092520210925302109254025A
:101CB000109255021092560210925702109258023A
:101CC0001092590210924D0210924C022EE240EAFC
:101CD00056E861E070E080912602909127020E9410
:101CE000F101809186018C3008F042C085E00E94AD
:101CF000D70080918601282F30E0F901EE0FFF1FF9
:101D0000E20FF31FEE5BFE4F9081907C9560908315
:101D100010928701109288012CE0622F0E943C16DD
:101D200090E0829FB001112430E020E0AB01420F2F
:101D3000531FFA01EE0FFF1FE40FF51FEE5BFE4F7E
:101D4000408146FD07C02F5F3F4F2C30310571F7B2
:101D50000E946303E09186018E2F90E0FC01EE0F5C
:101D6000FF1FE80FF91FEE5BFE4F808180648083C8
:101D70006AE570E086E891E00E94E70280918301C5
:101D80008C3008F042C083E00E94D700809183012C
:101D9000282F30E0F901EE0FFF1FE20FF31FEE5B7B
:101DA000FE4F9081907C93609083109284011092FA
:101DB00085012CE0622F0E943C1690E0829FB001CA
:101DC000112430E020E0AB01420F531FFA01EE0F67
:101DD000FF1FE40FF51FEE5BFE4F408146FD07C07D
:101DE0002F5F3F4F2C30310571F70E946303E09164
:101DF00083018E2F90E0FC01EE0FFF1FE80FF91F0B
:101E0000EE5BFE4F80818064808381E00E94560AF1
:101E1000E8E28E2EE5E09E2EA12CB12CF8EC4F2EA0
:101E2000512C612C712C22242394312C0FEF17E0BC
:101E30000E946701C0903501D0903601E0903701D3
:101E4000F09038016C197D098E099F09653671057E
:101E50008105910508F45AC020912A0230912B0285
:101E6000032E000C440B550B2C56314041095109EF
:101E7000A8ECB0E00E948D11A50194010E946E11A2
:101E800069017A0164E6C61AD108E108F108D09226
:101E90000201C09201010E946701609335017093B5
:101EA000360180933701909338018FE7C8168FEF82
:101EB000D806E4F00D2C000CEE08FF08A7019601EF
:101EC0002C593F4F4F4F5F4FAAE5B0E00E948D1154
:101ED000A30192010E946E11CA01B901635D7F4F97
:101EE0008F4F9F4F86E891E00E94E70280E00E94BA
:101EF000560A80E090E0892B09F49ACF0E94DD0118
:101F0000882309F495CF0E94000092CF0E943208E6
:101F10008091260290912702DC01ED91FC910084D2
:101F2000F185E02D0995892B21F38091260290916E
:101F30002702DC01ED91FC910284F385E02D0995E7
:101F4000E0913401E11116C08F30A1F0809156026A
:101F500090915702A0915802B09159020196A11D8B
:101F6000B11D8093560290935702A0935802B093EC
:101F70005902CECF91E09E0F90933401F0E0E55EE0
:101F8000FE4F8083993121F6109234018091330104
:101F90008111DCCF80914E0290914F02A0915002AE
:101FA000B09151020196A11DB11D80934E029093F4
:101FB0004F02A0935002B093510220911D0130E0D6
:101FC00080911C0190911D0197709093290280933C
:101FD000280280911E0190E043E0359527954A95AF
:101FE000E1F7AC0165E0440F551F6A95E1F7242B3A
:101FF000352B377030932B0220932A024091200119
:1020000050E020911F01B4E02B9F9001112476E055
:10201000959587957A95E1F7822B932B9A01322F2C
:102020002227330F330F822B932B977090932D021F
:1020300080932C022091210130E055954795C901EC
:102040009695982F882797958795482B592B5770E9
:1020500050932F0240932E028091220190E0B4E031
:1020600035952795BA95E1F7AC01C4E0440F551FAB
:10207000CA95E1F7242B352B37703093310220932A
:1020800030022091240130E04091230150E0440FC0
:10209000551F880F892F881F990B842B952BA90119
:1020A000542F4427550F842B952B97709093330210
:1020B000809332028091250190E0359527953595E2
:1020C0002795AC01F6E0440F551FFA95E1F7242B54
:1020D000352B37703093350220933402209126013E
:1020E00048E0249F90011124A5E095958795AA9535
:1020F000E1F7822B932B9093370280933602209145
:10210000280130E0809127019091280197709093E9
:102110003902809338028091290190E0B3E035952F
:102120002795BA95E1F7AC01C5E0440F551FCA9554
:10213000E1F7242B352B377030933B0220933A0282
:1021400040912B0150E020912A0164E0269F9001EC
:102150001124D6E095958795DA95E1F7822B932B9C
:102160009A01322F2227330F330F822B932B977034
:1021700090933D0280933C0220912C0130E05595D4
:102180004795C9019695982F882797958795482B4D
:10219000592B577050933F0240933E0280912D017E
:1021A00090E0F4E035952795FA95E1F7AC01A4E0CD
:1021B000440F551FAA95E1F7242B352B3770309328
:1021C00041022093400220912F0130E040912E01E6
:1021D00050E0440F551F880F892F881F990B842BBF
:1021E000952BA901542F4427550F842B952B9770BD
:1021F00090934302809342028091300190E03595A4
:10220000279535952795AC0166E0440F551F6A95D3
:10221000E1F7242B352B377030934502209344028D
:1022200020913101A8E02A9F9001112475E0959535
:1022300087957A95E1F7822B932B909347028093B1
:1022400046028091320180FF3AC010934902009308
:10225000480281FF39C010934B0200934A0283FF6A
:1022600038C030924D0220924C0282FF13C0809100
:10227000520290915302A0915402B09155020196DE
:10228000A11DB11D8093520290935302A09354025A
:10229000B09355020E946701DC01CB0160935A02A2
:1022A00090935B02A0935C02B0935D0210925E0279
:1022B00010925F02109260021092610229CE109279
:1022C000490210924802C5CF10924B0210924A0266
:1022D000C6CF10924D0210924C02C7CF052E97FB2D
:1022E0001EF400940E94851157FD07D00E94A01192
:1022F00007FC03D04EF40C94851150954095309511
:1023000021953F4F4F4F5F4F089590958095709561
:1023100061957F4F8F4F9F4F08950E94C211A59FD7
:10232000900DB49F900DA49F800D911D11240895D0
:10233000B7FF0C948D110E948D11821B930B089591
:10234000A1E21A2EAA1BBB1BFD010DC0AA1FBB1FB9
:10235000EE1FFF1FA217B307E407F50720F0A21B2B
:10236000B30BE40BF50B661F771F881F991F1A9498
:1023700069F760957095809590959B01AC01BD01C2
:10238000CF010895A29FB001B39FC001A39F700D1C
:10239000811D1124911DB29F700D811D1124911D6D
:1023A00008955058BB27AA270E94E9110C94931353
:1023B0000E945A1338F00E94611320F039F49F3FB5
:1023C00019F426F40C9457130EF4E095E7FB0C94E3
:1023D0005113E92F0E94B81358F3BA176207730715
:1023E0008407950720F079F4A6F50C94DA130EF41F
:1023F000E0950B2EBA2FA02D0B01B90190010C0115
:10240000CA01A0011124FF27591B99F0593F50F42C
:10241000503E68F11A16F040A22F232F342F442784
:10242000585FF3CF469537952795A795F04053957C
:10243000C9F77EF41F16BA0B620B730B840BBAF04C
:102440009150A1F0FF0FBB1F661F771F881FC2F7B7
:102450000EC0BA0F621F731F841F48F487957795CB
:102460006795B795F7959E3F08F0B0CF9395880F85
:1024700008F09927EE0F9795879508950E942D13E0
:1024800008F481E008950E946A13E3950C94A41364
:102490000E945C120C9493130E94611358F00E94E6
:1024A0005A1340F029F45F3F29F00C945113511155
:1024B0000C94DB130C9457130E94B81368F3992300
:1024C000B1F3552391F3951B550BBB27AA27621730
:1024D0007307840738F09F5F5F4F220F331F441F3D
:1024E000AA1FA9F335D00E2E3AF0E0E832D0915071
:1024F0005040E695001CCAF72BD0FE2F29D0660F5E
:10250000771F881FBB1F261737074807AB07B0E8A0
:1025100009F0BB0B802DBF01FF2793585F4F3AF0A6
:102520009E3F510578F00C9451130C94DB135F3FE0
:10253000E4F3983ED4F3869577956795B795F7952C
:102540009F5FC9F7880F911D9695879597F9089514
:10255000E1E0660F771F881FBB1F621773078407B0
:10256000BA0720F0621B730B840BBA0BEE1F88F7BF
:10257000E09508950E94C1126894B1110C94DB1388
:1025800008950E94C01388F09F5798F0B92F99279B
:10259000B751B0F0E1F0660F771F881F991F1AF04E
:1025A000BA95C9F714C0B13091F00E94DA13B1E0C6
:1025B00008950C94DA13672F782F8827B85F39F0C5
:1025C000B93FCCF3869577956795B395D9F73EF4E7
:1025D00090958095709561957F4F8F4F9F4F08958F
:1025E000E89409C097FB3EF49095809570956195AD
:1025F0007F4F8F4F9F4F9923A9F0F92F96E9BB2763
:102600009395F695879577956795B795F111F8CFDE
:10261000FAF4BB0F11F460FF1BC06F5F7F4F8F4F49
:102620009F4F16C0882311F096E911C0772321F03F
:102630009EE8872F762F05C0662371F096E8862FD7
:1026400070E060E02AF09A95660F771F881FDAF72E
:10265000880F9695879597F90895990F0008550F5B
:10266000AA0BE0E8FEEF16161706E807F907C0F018
:1026700012161306E407F50798F0621B730B840B20
:10268000950B39F40A2661F0232B242B252B21F4FA
:1026900008950A2609F4A140A6958FEF811D811D9A
:1026A000089597F99F6780E870E060E008959FEFD4
:1026B00080EC089500240A941616170618060906D9
:1026C000089500240A9412161306140605060895A8
:1026D0000C9457130E94C013D8F3E894E0E0BB2792
:1026E0009F57F0F02AED3FE049EC06C0EE0FBB0F1C
:1026F000661F771F881F28F0B23A620773078407A6
:1027000028F0B25A620B730B840BE3959A9572F71B
:10271000803830F49A95BB0F661F771F881FD2F759
:1027200090480C942815092E0394000C11F488236A
:1027300052F0BB0F40F4BF2B11F460FF04C06F5F79
:102740007F4F8F4F9F4F0895EF93E0FF07C0A2EA9E
:102750002AED3FE049EC5FEB0E94E9110E949313E0
:102760000F90039401FC9058E8E6F0E00C94621599
:1027700057FD9058440F551F59F05F3F71F0479532
:10278000880F97FB991F61F09F3F79F08795089517
:10279000121613061406551FF2CF4695F1DF08C036
:1027A000161617061806991FF1CF86957105610553
:1027B00008940895E894BB2766277727CB0197F9FB
:1027C00008950E94F4130C9493130E945A1338F046
:1027D0000E94611320F0952311F00C9451130C9476
:1027E000571311240C94DB130E94B81370F3959FB8
:1027F000C1F3950F50E0551F629FF001729FBB27F8
:10280000F00DB11D639FAA27F00DB11DAA1F649F93
:102810006627B00DA11D661F829F2227B00DA11D46
:10282000621F739FB00DA11D621F839FA00D611DCC
:10283000221F749F3327A00D611D231F849F600DED
:10284000211D822F762F6A2F11249F5750409AF016
:10285000F1F088234AF0EE0FFF1FBB1F661F771FA2
:10286000881F91505040A9F79E3F510580F00C946D
:1028700051130C94DB135F3FE4F3983ED4F3869539
:1028800077956795B795F795E7959F5FC1F7FE2B0D
:10289000880F911D9695879597F90895FA01EE0F87
:1028A000FF1F309621053105A1F16115710561F415
:1028B0008038BFE39B0749F168949038810561F047
:1028C0008038BFEF9B0741F099234AF5FF3FE105B0
:1028D0003105210519F1E8940894E795D901AA2357
:1028E00029F4AB2FBE2FF85FD0F310C0FF5F70F458
:1028F000A695E0F7F73950F019F0FF3A38F49F77D2
:102900009F930DD00F9007FC9058089546F00C94BB
:10291000571360E070E080E89FE308954FE79F77EA
:102920005F934F933F932F930E94C0152F913F9138
:102930004F915F910E94E1130C94F4149F930E94B5
:102940006A130F9007FCEE5F0C94A41319F416F4AD
:102950000C9457130C9426150E94C013B8F39923B6
:10296000C9F3B6F39F57550B87FF0E943415002417
:10297000A0E640EA900180585695979528F4805C2F
:10298000660F771F881F20F026173707480730F497
:10299000621B730B840B202931294A2BA6951794AF
:1029A0000794202531254A2758F7660F771F881F7F
:1029B00020F026173707480730F4620B730B840B9F
:1029C000200D311D411DA09581F7B901842F91582B
:1029D000880F96958795089529F416F00C94511355
:1029E0000C94DA130C9457130E94C013A8F3963872
:1029F000A0F707F80F92E8942BE33AEA48EB5FE779
:102A00000E94F7130F920F920F924DB75EB70F927D
:102A10000E940816E6E8F0E00E943B154F915F9196
:102A2000EF91FF91E595EE1FFF1F49F0FE57E0681B
:102A30004427EE0F441FFA95E1F74195550B0E948C
:102A400082150F9007FE0C94761508959F3F31F084
:102A5000915020F4879577956795B795880F911DCC
:102A60009695879597F9089591505040660F771F76
:102A7000881FD2F70895DF93CF931F930F93FF9290
:102A8000EF92DF927B018C01689406C0DA2EEF0191
:102A90000E94F413FE01E894A5912591359145918A
:102AA0005591A6F3EF010E94E911FE019701A801DB
:102AB000DA9469F7DF90EF90FF900F911F91CF911B
:102AC000DF9108959F938F937F936F93FF93EF937D
:102AD0009B01AC010E94E113EF91FF910E943B1515
:102AE0002F913F914F915F910C94E1139B01AC01A9
:102AF00060E070E080E89FE30C9448120C9451135E
:102B00000C9426150E94C013D8F39923C9F3940F8F
:102B1000511DA3F39150504094F059F0882332F0A6
:102B2000660F771F881F91505040C1F79E3F510597
:102B30002CF7880F911D9695879597F908955F3F1B
:102B4000ACF0983E9CF0BB27869577956795B79536
:102B500008F4B1609395C1F7BB0F58F711F460FF0B
:102B6000E8CF6F5F7F4F8F4F9F4FE3CF0C94DB1306
:102B700016F00C9426150C94571368940C9451136A
:102B80000E94C013A8F39923C1F3AEF3DF93CF9350
:102B90001F930F93FF92C92FDD2788232AF02197D7
:102BA000660F771F881FDAF720E030E040E85FEB20
:102BB0009FE3883920F0803E38F021968F770E947D
:102BC000D211EEEAF0E004C00E94D211EBEDF0E089
:102BD0000E943B158B01BE01EC01FB2E6F57710962
:102BE0007595771F880B990B0E94F21228E132E746
:102BF00041E35FE30E94F413AF2D9801AE01FF9013
:102C00000F911F91CF91DF910E94E9110C949313C2
:102C1000FA01DC01AA0FBB1F9B01AC01BF5728F4CE
:102C2000222733274427507820C0B75190F4AB2F88
:102C30000024469537952795011CA395D2F30020D3
:102C400071F0220F331F441FB395DAF30ED00C94AA
:102C5000D11161307105A0E88A07B94630F49B01B3
:102C6000AC016627772788279078309621F020835B
:102C70003183428353830895991B79E004C0991FDF
:102C8000961708F0961B881F7A95C9F780950895C6
:102C9000EE0FFF1F0590F491E02D09942A0D3B1DC6
:102CA0004C1D5D1D6E1D7F1D801F911F08952A19EB
:102CB0003B094C095D096E097F09800B910B089552
:102CC0002A153B054C055D056E057F0580079107BC
:102CD00008950024A7FD00942A17300540055005EB
:102CE00060057005800590050895F894FFCF5AFFA0
:102CF000FF000000005D027301A001AA02D101AF34
:082D000001C30109000D0A00E6
:107800000C94343C0C94513C0C94513C0C94513CE1
:107810000C94513C0C94513C0C94513C0C94513CB4
:107820000C94513C0C94513C0C94513C0C94513CA4
:107830000C94513C0C94513C0C94513C0C94513C94
:107840000C94513C0C94513C0C94513C0C94513C84
:107850000C94513C0C94513C0C94513C0C94513C74
:107860000C94513C0C94513C11241FBECFEFD8E036
:10787000DEBFCDBF11E0A0E0B1E0ECE9FFE702C060
:1078800005900D92A230B107D9F712E0A2E0B1E065
:1078900001C01D92AD30B107E1F70E942D3D0C945F
:1078A000CC3F0C94003C982F959595959595959582
:1078B000905D8F708A307CF0282F295A8091C0000B
:1078C00085FFFCCF9093C6008091C00085FFFCCF60
:1078D0002093C6000895282F205DF0CF982F809127
:1078E000C00085FFFCCF9093C6000895EF92FF92F1
:1078F0000F931F93EE24FF2487018091C00087FD22
:1079000017C00894E11CF11C011D111D81E4E8164B
:1079100082E4F8068FE0080780E0180770F3E09132
:107920000401F091050109958091C00087FFE9CF1E
:107930008091C6001F910F91FF90EF9008950E94D3
:10794000763C982F8091C00085FFFCCF9093C600B5
:1079500091362CF490330CF09053892F089597555D
:10796000892F08951F930E949F3C182F0E949F3CCF
:107970001295107F810F1F9108951F93182F882350
:1079800021F00E94763C1150E1F71F9108951F935A
:10799000182F0E94763C803249F0809103018F5F5E
:1079A000809303018530C1F01F9108958091C0003C
:1079B00085FFFCCF84E18093C6008091C00085FFE5
:1079C000FCCF1093C6008091C00085FFFCCF80E102
:1079D0008093C6001F910895E0910401F091050184
:1079E00009951F9108950E94763C803241F0809164
:1079F00003018F5F80930301853081F008958091AA
:107A0000C00085FFFCCF84E18093C6008091C00058
:107A100085FFFCCF80E18093C6000895E0910401CA
:107A2000F09105010995089540E951E08823A1F0FE
:107A30002D9A28EE33E0FA013197F1F721503040CA
:107A4000D1F72D9828EE33E0FA013197F1F7215064
:107A50003040D1F7815061F708953F924F925F9285
:107A60006F927F928F929F92AF92BF92CF92DF924E
:107A7000EF92FF920F931F93CF93DF93000080E16B
:107A80008093C4001092C50088E18093C10086E015
:107A90008093C2005098589A259A81E00E94143D24
:107AA00024E1F22E9EE1E92E85E9D82E0FE0C02ECA
:107AB00010E1B12EAA24A394B1E49B2EA6E58A2E50
:107AC000F2E57F2EE0E26E2E79E4572E63E5462E36
:107AD00050E5352E0E94763C8033B1F18133B9F107
:107AE000803409F46FC0813409F476C0823409F41B
:107AF00085C0853409F488C0803531F1823521F1A3
:107B0000813511F1853509F485C0863509F48DC0BC
:107B1000843609F496C0843709F403C1853709F423
:107B200072C1863709F466C0809103018F5F80932C
:107B30000301853079F6E0910401F0910501099582
:107B40000E94763C803351F60E94F33CC3CF0E94E2
:107B5000763C803249F78091C00085FFFCCFF092DF
:107B6000C6008091C00085FFFCCF9092C600809136
:107B7000C00085FFFCCF8092C6008091C00085FFC9
:107B8000FCCF7092C6008091C00085FFFCCF609250
:107B9000C6008091C00085FFFCCF5092C600809146
:107BA000C00085FFFCCF4092C6008091C00085FFD9
:107BB000FCCF3092C6008091C00085FFFCCFB09210
:107BC000C60088CF0E94763C863808F4BDCF0E945C
:107BD000763C0E94F33C7ECF0E94763C803809F4CC
:107BE0009CC0813809F40BC1823809F43CC1883942
:107BF00009F48FC080E00E94C73C6CCF84E10E94F2
:107C0000BD3C0E94F33C66CF85E00E94BD3C0E94D3
:107C1000F33C60CF0E94763C809306010E94763C44
:107C2000809307010E94F33C55CF0E94763C80333D
:107C300009F41DC183E00E94BD3C80E00E94C73C66
:107C400049CF0E94763C809309020E94763C809343
:107C5000080280910C028E7F80930C020E94763C79
:107C6000853409F415C18091080290910902892B8D
:107C700089F000E010E00E94763CF801E85FFE4FDA
:107C800080830F5F1F4F80910802909109020817AF
:107C9000190788F30E94763C803209F045CF809125
:107CA0000C0280FF01C16091060170910701660F0F
:107CB000771F7093070160930601A0910802B091AD
:107CC00009021097C9F0E8E0F1E09B01AD014E0F09
:107CD0005F1FF999FECF32BD21BD819180BDFA9A17
:107CE000F99A2F5F3F4FE417F50799F76A0F7B1F4B
:107CF00070930701609306018091C00085FFFCCF5F
:107D0000F092C6008091C00085FFFCCFB092C60003
:107D1000E1CE83E00E94C73CDDCE82E00E94C73CFA
:107D2000D9CE0E94763C809309020E94763C8093D3
:107D300008028091060190910701880F991F909386
:107D40000701809306010E94763C853409F4A6C0A1
:107D500080910C028E7F80930C020E94763C8032D0
:107D600009F0B8CE8091C00085FFFCCFF092C6002C
:107D7000609108027091090261157105B9F140E046
:107D800050E080910C02A82FA170B82FB27011C0E2
:107D9000BB2309F45CC0E0910601F0910701319624
:107DA000F0930701E09306014F5F5F4F46175707B7
:107DB000E8F4AA2369F3F999FECF209106013091E6
:107DC000070132BD21BDF89A90B58091C00085FFB2
:107DD000FCCF9093C6002F5F3F4F30930701209355
:107DE00006014F5F5F4F4617570718F38091C00099
:107DF00085FDE5CE8091C00085FFF8CFE0CE81E023
:107E00000E94C73C67CE0E94763C803209F08CCE3F
:107E10008091C00085FFFCCFF092C6008091C00029
:107E200085FFFCCFE092C6008091C00085FFFCCFAB
:107E3000D092C6008091C00085FFFCCFC092C600E2
:107E40008091C00085FFFCCFB092C60043CEE09188
:107E50000601F091070194918091C00085FFFCCF4D
:107E60009093C6009CCF80E10E94C73C33CE0E9415
:107E7000763C0E94763C182F0E94763C112309F430
:107E800083C0113009F484C08FE00E94C73C22CE29
:107E900080910C02816080930C02E5CE80910C02EF
:107EA000816080930C0259CF809107018823880F4D
:107EB000880B8A2180930B02809106019091070123
:107EC000880F991F90930701809306018091080203
:107ED00080FF09C080910802909109020196909359
:107EE000090280930802F894F999FECF1127E091D6
:107EF0000601F0910701C8E0D1E08091080290915D
:107F00000902103091F40091570001700130D9F34B
:107F100003E000935700E89500915700017001308D
:107F2000D9F301E100935700E89509901990009169
:107F3000570001700130D9F301E000935700E89534
:107F40001395103498F011270091570001700130FB
:107F5000D9F305E000935700E895009157000170B0
:107F60000130D9F301E100935700E895329602976A
:107F700009F0C7CF103011F00296E5CF112480919F
:107F8000C00085FFB9CEBCCE8EE10E94C73CA2CD19
:0E7F900085E90E94C73C9ECDF894FFCF80008B
:00000001FF
