:020000040000FA
:100000000C9462000C948A000C948A000C948A0070
:100010000C948A000C948A000C948A000C948A0038
:100020000C948A000C948A000C948A000C949B0314
:100030000C948A000C948A000C948A000C948A0018
:100040000C94F9020C948A000C9469030C944303F9
:100050000C948A000C948A000C948A000C948A00F8
:100060000C948A000C948A000000000023002600F3
:10007000290000000000240027002A0000000000E2
:10008000250028002B0004040404040404040202D4
:100090000202020203030303030301020408102007
:1000A0004080010204081020010204081020000012
:1000B0000008000201000003040700000000000027
:1000C0000000570411241FBECFEFD8E0DEBFCDBF24
:1000D00011E0A0E0B1E0E6EBF1E102C005900D9285
:1000E000A431B107D9F722E0A4E1B1E001C01D922B
:1000F000A034B207E1F710E0C2E6D0E004C02197D7
:10010000FE010E94D308C136D107C9F70E94D4046A
:100110000C94D9080C940000833081F028F48130CD
:1001200099F08230A9F008958730A9F08830C9F09D
:100130008430B1F4809180008F7D03C08091800075
:100140008F7780938000089584B58F7784BD08955C
:1001500084B58F7DFBCF8091B0008F778093B00006
:1001600008958091B0008F7DF9CF1F93CF93DF93D7
:10017000282F30E0F901E255FF4F8491F901E6564E
:10018000FF4FD491F901EA57FF4FC491CC23A9F056
:10019000162F81110E948C00EC2FF0E0EE0FFF1F54
:1001A000E458FF4FA591B4918FB7F894EC911111D9
:1001B00008C0D095DE23DC938FBFDF91CF911F91D4
:1001C0000895DE2BF8CFCF93DF9390E0FC01E65645
:1001D000FF4F24918A579F4FFC0184918823D1F0CF
:1001E00090E0880F991FFC01EE58FF4FA591B49144
:1001F000FC01E458FF4FC591D49161110EC09FB727
:10020000F8948C91E22FE0958E238C932881E22341
:10021000E8839FBFDF91CF9108958FB7F894EC9159
:10022000E22BEC938FBFF6CFAF92BF92CF92DF92CB
:10023000EF92FF920F931F93CF93DF936C017B019B
:100240008B01040F151FEB015E01AE18BF08C0172C
:10025000D10759F06991D601ED91FC910190F0819F
:10026000E02DC6010995892B79F7C501DF91CF9162
:100270001F910F91FF90EF90DF90CF90BF90AF90C4
:100280000895FC01538D448D252F30E0842F90E09C
:10029000821B930B541710F0CF9608950197089581
:1002A000FC01918D828D981761F0A28DAE0FBF2F4A
:1002B000B11D5D968C91928D9F5F9F73928F90E0A0
:1002C00008958FEF9FEF0895FC01918D828D98170F
:1002D00031F0828DE80FF11D858D90E008958FEF4C
:1002E0009FEF0895FC01918D228D892F90E0805C15
:1002F0009F4F821B91098F739927089587E691E09C
:100300000E94720121E0892B09F420E0822F0895D8
:1003100080E090E0892B29F00E947E0181110C94ED
:1003200000000895FC01A48DA80FB92FB11DA35A98
:10033000BF4F2C91848D90E001968F739927848F05
:10034000A689B7892C93A089B1898C918370806428
:100350008C93938D848D981306C00288F389E02DC9
:1003600080818F7D80830895EF92FF920F931F937A
:10037000CF93DF93EC0181E0888F9B8D8C8D981358
:100380001AC0E889F989808185FF15C09FB7F89464
:10039000EE89FF896083E889F989808183708064B0
:1003A00080839FBF81E090E0DF91CF911F910F91FB
:1003B000FF90EF900895F62E0B8D10E00F5F1F4F0A
:1003C0000F731127E02E8C8D8E110CC00FB607FC19
:1003D000FACFE889F989808185FFF5CFCE010E94A7
:1003E0009201F1CFEB8DEC0FFD2FF11DE35AFF4F82
:1003F000F0829FB7F8940B8FEA89FB898081806235
:10040000CFCFCF93DF93EC01888D8823B9F0AA89F1
:10041000BB89E889F9898C9185FD03C0808186FDBF
:100420000DC00FB607FCF7CF8C9185FFF2CF80810E
:1004300085FFEDCFCE010E949201E9CFDF91CF91F0
:100440000895CF92DF92EF92FF92CF93DF93EC016A
:10045000603282E07807CCF5653B710514F064EBFF
:1004600070E0898128E830E0281B310987FD339549
:10047000220F331F220F331F6901330FEE08FF08CD
:100480008A8128E532E0281B310987FD3395220F48
:10049000331F220F331F032E000C440B550B2C1956
:1004A0003D094E095F09DB0177FF02C0B0E0A0E023
:1004B0000E948E0824EB30E040E050E00E94640887
:1004C000C20ED31EE41EF51EB601E881EC3070F5B5
:1004D000298188E890E0821B910927FD9395880F78
:1004E000991F880F991F681779077CF02A8188E582
:1004F00092E0821B910927FD9395880F991F880F21
:10050000991F681779070CF4CB010297880F991F80
:100510004FB7F8942E2F30E0F901EE0FFF1FE20FD6
:10052000F31FE45CFE4F928381834FBFDF91CF9135
:10053000FF90EF90DF90CF9008951F93CF93DF93BC
:10054000EC01162F88818C3008F04EC061E0812FBD
:100550000E94E3008881282F30E0F901EE0FFF1F91
:10056000E20FF31FE45CFE4F1F736081607C612B20
:10057000608319821A822CE0622F0E94C708829F32
:10058000B001112430E020E0AB01420F531FFA010B
:10059000EE0FFF1FE40FF51FE45CFE4F908196FD08
:1005A00016C02F5F3F4F2C30310571F781110FC0FE
:1005B0001092800082E0809381001092850010925A
:1005C0008400B19A80916F00826080936F00E8810F
:1005D0008E2F90E0FC01EE0FFF1FE80FF91FE45C87
:1005E000FE4F8081806480838881DF91CF911F914D
:1005F00008951F920F920FB60F9211242F933F93DD
:100600008F939F93AF93BF9380913801909139015D
:10061000A0913A01B0913B013091370123E0230FC3
:100620002D3758F50196A11DB11D209337018093F8
:10063000380190933901A0933A01B0933B01809126
:10064000330190913401A0913501B09136010196AA
:10065000A11DB11D8093330190933401A093350106
:10066000B0933601BF91AF919F918F913F912F91A0
:100670000F900FBE0F901F90189526E8230F02963B
:10068000A11DB11DD2CF1F920F920FB60F92112450
:100690002F933F934F935F936F937F938F939F938A
:1006A000AF93BF93EF93FF9387E691E00E9492018F
:1006B000FF91EF91BF91AF919F918F917F916F913A
:1006C0005F914F913F912F910F900FBE0F901F9010
:1006D00018951F920F920FB60F9211242F938F939C
:1006E0009F93EF93FF93E0917701F09178018081E0
:1006F000E0917D01F0917E0182FD1BC0908180918F
:1007000080018F5F8F7320918101821741F0E0910A
:100710008001F0E0E959FE4F958F80938001FF91B1
:10072000EF919F918F912F910F900FBE0F901F907F
:1007300018958081F4CF1F920F920FB60F9211245B
:100740002F933F934F935F936F937F938F939F93D9
:10075000AF93BF93CF93DF93EF93FF9380911401F7
:10076000C0916001D0E087FF24C0109285001092F4
:100770008400809114018F5F809314018091140193
:10078000082E000C990B8C179D0724F480911401FE
:100790008C30C4F18091840090918500049680345F
:1007A0009C4908F47AC08091840090918500049659
:1007B00076C080911401082E000C990B8C179D07B0
:1007C000C4F6E09114018E2FEE0F990BFC01EE0F91
:1007D000FF1FE80FF91FE45CFE4F808186FFC9CF41
:1007E000E09114018E2FEE0F990BFC01EE0FFF1F0D
:1007F000E80FF91FE45CFE4F808160E08F730E9478
:10080000B500B7CF2091840030918500E0911401AC
:100810008E2FEE0F990BFC01EE0FFF1FE80FF91F53
:10082000E45CFE4F81819281820F931F9093890037
:1008300080938800E09114018E2FEE0F990BFC013C
:10084000EE0FFF1FE80FF91FE45CFE4F808186FF6B
:1008500011C0E09114018E2FEE0F990BFC01EE0FE9
:10086000FF1FE80FF91FE45CFE4F808161E08F738A
:100870000E94B500FF91EF91DF91CF91BF91AF91B1
:100880009F918F917F916F915F914F913F912F91A8
:100890000F900FBE0F901F90189580E49CE99093E5
:1008A0008900809388008FEF80931401E3CF10922A
:1008B0006A011092690188EE93E0A0E0B0E08093B5
:1008C0006B0190936C01A0936D01B0936E0186E073
:1008D00091E0909368018093670185EC90E090939C
:1008E00074018093730184EC90E09093760180937F
:1008F000750180EC90E0909378018093770181EC12
:1009000090E090937A018093790182EC90E090934B
:100910007C0180937B0186EC90E090937E01809334
:100920007D0110928001109281011092820110923B
:10093000830187E691E09093050280930402809101
:1009400060018C3048F591E0980F9093600180939E
:10095000640190E0FC01EE0FFF1FE80FF91FE45C5B
:10096000FE4F88EB9BE092838183809160018C3005
:10097000B8F491E0980F909360018093610190E04A
:10098000FC01EE0FFF1FE80FF91FE45CFE4F88EB40
:100990009BE09283818308958FEF80936401E5CF7C
:1009A0008FEF809361010895789484B5826084BD4F
:1009B00084B5816084BD85B5826085BD85B5816063
:1009C00085BD80916E00816080936E0010928100E1
:1009D000809181008260809381008091810081609C
:1009E000809381008091800081608093800080915D
:1009F000B10084608093B1008091B00081608093E9
:100A0000B00080917A00846080937A0080917A00AF
:100A1000826080937A0080917A00816080937A006E
:100A200080917A00806880937A001092C100E6E09D
:100A3000F2E01192119222E0EA32F207D1F710921D
:100A40002C0210922D0210922E0210922F02109260
:100A50003002109231021092320210923302109240
:100A60003402109235021092360210923702109220
:100A70002B0210922A02E0910402F0910502A08953
:100A8000B18982E08C93A485B5851C92A685B78533
:100A900083E18C93108EA489B5898EE28C93A28910
:100AA000B3898C9180618C93A289B3898C91886081
:100AB0008C93A289B3898C9180688C930288F38986
:100AC000E02D80818F7D808361E170E084E691E09C
:100AD0000E949D0266E070E081E691E00E949D0226
:100AE0006AE570E084E691E00E9421026AE570E028
:100AF00081E691E00E94210261E084E00E94E3002F
:100B000060E085E10E94E30061E08DE00E94E30087
:100B100060E084E00E94B500D8E2CD2ED5E0DD2E65
:100B2000E12CF12C18EC812E912CA12CB12CC0E0E1
:100B30002C2EC0E03C2E8091040290910502DC0135
:100B4000ED91FC910084F185E02D0995009709F461
:100B5000E7C18091040290910502DC01ED91FC91C6
:100B60000284F385E02D099590912E01911116C014
:100B70008F30A1F08091340290913502A09136021D
:100B8000B09137020196A11DB11D8093340290935C
:100B90003502A0933602B0933702CDCF21E0290F62
:100BA00020932E01E92FF0E0EB5EFE4F8083293188
:100BB00011F610922E0180912D018111DBCF8091D1
:100BC0002C0290912D02A0912E02B0912F0201963D
:100BD000A11DB11D80932C0290932D02A0932E0293
:100BE000B0932F022091170130E08091160190916F
:100BF0001701977090930702809306028091180165
:100C000090E043E0359527954A95E1F7AC0165E022
:100C1000440F551F6A95E1F7242B352B377030931D
:100C200009022093080240911A0150E02091190115
:100C3000B4E02B9F9001112476E0959587957A95E5
:100C4000E1F7822B932B9A01322F2227330F330F98
:100C5000822B932B977090930B0280930A02209122
:100C60001B0130E055954795C9019695982F882727
:100C700097958795482B592B577050930D024093A9
:100C80000C0280911C0190E0B4E035952795BA954F
:100C9000E1F7AC01C4E0440F551FCA95E1F7242BDE
:100CA000352B377030930F0220930E0220911E01D6
:100CB00030E040911D0150E0440F551F880F892FEF
:100CC000881F990B842B952BA901542F4427550F6E
:100CD000842B952B97709093110280931002809132
:100CE0001F0190E03595279535952795AC0166E075
:100CF000440F551F6A95E1F7242B352B377030933D
:100D000013022093120220912001E8E02E9F90010F
:100D1000112475E0959587957A95E1F7822B932BB1
:100D200090931502809314022091220130E080916B
:100D300021019091220197709093170280931602DF
:100D40008091230190E0E3E035952795EA95E1F75E
:100D5000AC01F5E0440F551FFA95E1F7242B352B34
:100D6000377030931902209318024091250150E00A
:100D700020912401F4E02F9F90011124A6E0959585
:100D80008795AA95E1F7822B932B9A01322F222780
:100D9000330F330F822B932B977090931B0280930A
:100DA0001A022091260130E055954795C901969584
:100DB000982F882797958795482B592B57705093D4
:100DC0001D0240931C028091270190E014E03595AC
:100DD00027951A95E1F7AC0104E0440F551F0A95D9
:100DE000E1F7242B352B377030931F0220931E021E
:100DF0002091290130E04091280150E0440F551F17
:100E0000880F892F881F990B842B952BA901542FAC
:100E10004427550F842B952B977090932102809334
:100E2000200280912A0190E03595279535952795E8
:100E3000AC01A6E0440F551FAA95E1F7242B352BF2
:100E40003770309323022093220220912B0148E037
:100E5000249F90011124B5E095958795BA95E1F707
:100E6000822B932B909325028093240280912C0156
:100E700080FF47C0AFEFB7E0B0932702A0932602F0
:100E800081FF44C0EFEFF7E0F0932902E0932802DE
:100E900083FF41C021E030E030932B0220932A02EF
:100EA00082FF13C08091300290913102A0913202F2
:100EB000B09133020196A11DB11D80933002909331
:100EC0003102A0933202B09333022FB7F89480918D
:100ED000380190913901A0913A01B0913B012FBFA7
:100EE0008093380290933902A0933A02B0933B0268
:100EF00010923C0210923D0210923E0210923F026C
:100F00001ACE1092270210922602BACF109229020E
:100F100010922802BDCF10922B0210922A02C0CF4D
:100F20002FB7F894409138015091390160913A01FE
:100F300070913B012FBF00912F0110913001209142
:100F4000310130913201401B510B620B730B45365E
:100F500051056105710508F4ABC02FB7F8944091B5
:100F600038015091390160913A0170913B012FBFD6
:100F700040932F01509330016093310170933201FF
:100F800037E430937C0020917A00206420937A002B
:100F900020917A0026FDFCCF2091780030917900D5
:100FA000C1E02D3231400CF4C0E00C2F10E0E2EB38
:100FB000F0E02491EEE9F0E0D491EAE8F0E064900A
:100FC0006620A9F0222319F0822F0E948C00E62DC2
:100FD000F0E0EE0FFF1FE859FF4FA591B4918C91FF
:100FE000D82331E020E009F430E0832F922F081756
:100FF000190741F06C2F84E00E94B5006C2F8DE042
:101000000E94B5002091060230910702032E000CC9
:10101000440B550B2C56314041095109A8ECB0E066
:101020000E948308A70196010E946408AAE5B0E027
:101030000E948308A50194010E94640829013A01D5
:10104000FDE24F0E511C611C711C50920101409237
:1010500000012091080230910902032E000C440B7C
:10106000550B2C56314041095109A8ECB0E00E94C3
:101070008308A70196010E946408AAE5B0E00E94D7
:101080008308A50194010E946408CA01B901635D47
:101090007F4F8F4F9F4F6F372FEF72074CF084E6D3
:1010A00091E00E942102B20181E691E00E942102BA
:1010B0002114310409F43FCD0E947E01882309F4F4
:1010C00036CD0E94000033CD052E97FB1EF4009410
:1010D0000E947B0857FD07D00E94960807FC03D0AA
:1010E0004EF40C947B0850954095309521953F4FD8
:1010F0004F4F5F4F089590958095709561957F4F04
:101100008F4F9F4F08950E94B808A59F900DB49FE0
:10111000900DA49F800D911D11240895B7FF0C948C
:1011200083080E948308821B930B0895A1E21A2E64
:10113000AA1BBB1BFD010DC0AA1FBB1FEE1FFF1F7B
:10114000A217B307E407F50720F0A21BB30BE40BCB
:10115000F50B661F771F881F991F1A9469F7609512
:101160007095809590959B01AC01BD01CF010895CC
:10117000A29FB001B39FC001A39F700D811D1124D8
:10118000911DB29F700D811D1124911D0895991B11
:1011900079E004C0991F961708F0961B881F7A956E
:1011A000C9F780950895EE0FFF1F0590F491E02D8B
:1011B0000994F894FFCFFFFF00000000B401140170
:0A11C00041010102720150016401B7
:107800000C94343C0C94513C0C94513C0C94513CE1
:107810000C94513C0C94513C0C94513C0C94513CB4
:107820000C94513C0C94513C0C94513C0C94513CA4
:107830000C94513C0C94513C0C94513C0C94513C94
:107840000C94513C0C94513C0C94513C0C94513C84
:107850000C94513C0C94513C0C94513C0C94513C74
:107860000C94513C0C94513C11241FBECFEFD8E036
:10787000DEBFCDBF11E0A0E0B1E0ECE9FFE702C060
:1078800005900D92A230B107D9F712E0A2E0B1E065
:1078900001C01D92AD30B107E1F70E942D3D0C945F
:1078A000CC3F0C94003C982F959595959595959582
:1078B000905D8F708A307CF0282F295A8091C0000B
:1078C00085FFFCCF9093C6008091C00085FFFCCF60
:1078D0002093C6000895282F205DF0CF982F809127
:1078E000C00085FFFCCF9093C6000895EF92FF92F1
:1078F0000F931F93EE24FF2487018091C00087FD22
:1079000017C00894E11CF11C011D111D81E4E8164B
:1079100082E4F8068FE0080780E0180770F3E09132
:107920000401F091050109958091C00087FFE9CF1E
:107930008091C6001F910F91FF90EF9008950E94D3
:10794000763C982F8091C00085FFFCCF9093C600B5
:1079500091362CF490330CF09053892F089597555D
:10796000892F08951F930E949F3C182F0E949F3CCF
:107970001295107F810F1F9108951F93182F882350
:1079800021F00E94763C1150E1F71F9108951F935A
:10799000182F0E94763C803249F0809103018F5F5E
:1079A000809303018530C1F01F9108958091C0003C
:1079B00085FFFCCF84E18093C6008091C00085FFE5
:1079C000FCCF1093C6008091C00085FFFCCF80E102
:1079D0008093C6001F910895E0910401F091050184
:1079E00009951F9108950E94763C803241F0809164
:1079F00003018F5F80930301853081F008958091AA
:107A0000C00085FFFCCF84E18093C6008091C00058
:107A100085FFFCCF80E18093C6000895E0910401CA
:107A2000F09105010995089540E951E08823A1F0FE
:107A30002D9A28EE33E0FA013197F1F721503040CA
:107A4000D1F72D9828EE33E0FA013197F1F7215064
:107A50003040D1F7815061F708953F924F925F9285
:107A60006F927F928F929F92AF92BF92CF92DF924E
:107A7000EF92FF920F931F93CF93DF93000080E16B
:107A80008093C4001092C50088E18093C10086E015
:107A90008093C2005098589A259A81E00E94143D24
:107AA00024E1F22E9EE1E92E85E9D82E0FE0C02ECA
:107AB00010E1B12EAA24A394B1E49B2EA6E58A2E50
:107AC000F2E57F2EE0E26E2E79E4572E63E5462E36
:107AD00050E5352E0E94763C8033B1F18133B9F107
:107AE000803409F46FC0813409F476C0823409F41B
:107AF00085C0853409F488C0803531F1823521F1A3
:107B0000813511F1853509F485C0863509F48DC0BC
:107B1000843609F496C0843709F403C1853709F423
:107B200072C1863709F466C0809103018F5F80932C
:107B30000301853079F6E0910401F0910501099582
:107B40000E94763C803351F60E94F33CC3CF0E94E2
:107B5000763C803249F78091C00085FFFCCFF092DF
:107B6000C6008091C00085FFFCCF9092C600809136
:107B7000C00085FFFCCF8092C6008091C00085FFC9
:107B8000FCCF7092C6008091C00085FFFCCF609250
:107B9000C6008091C00085FFFCCF5092C600809146
:107BA000C00085FFFCCF4092C6008091C00085FFD9
:107BB000FCCF3092C6008091C00085FFFCCFB09210
:107BC000C60088CF0E94763C863808F4BDCF0E945C
:107BD000763C0E94F33C7ECF0E94763C803809F4CC
:107BE0009CC0813809F40BC1823809F43CC1883942
:107BF00009F48FC080E00E94C73C6CCF84E10E94F2
:107C0000BD3C0E94F33C66CF85E00E94BD3C0E94D3
:107C1000F33C60CF0E94763C809306010E94763C44
:107C2000809307010E94F33C55CF0E94763C80333D
:107C300009F41DC183E00E94BD3C80E00E94C73C66
:107C400049CF0E94763C809309020E94763C809343
:107C5000080280910C028E7F80930C020E94763C79
:107C6000853409F415C18091080290910902892B8D
:107C700089F000E010E00E94763CF801E85FFE4FDA
:107C800080830F5F1F4F80910802909109020817AF
:107C9000190788F30E94763C803209F045CF809125
:107CA0000C0280FF01C16091060170910701660F0F
:107CB000771F7093070160930601A0910802B091AD
:107CC00009021097C9F0E8E0F1E09B01AD014E0F09
:107CD0005F1FF999FECF32BD21BD819180BDFA9A17
:107CE000F99A2F5F3F4FE417F50799F76A0F7B1F4B
:107CF00070930701609306018091C00085FFFCCF5F
:107D0000F092C6008091C00085FFFCCFB092C60003
:107D1000E1CE83E00E94C73CDDCE82E00E94C73CFA
:107D2000D9CE0E94763C809309020E94763C8093D3
:107D300008028091060190910701880F991F909386
:107D40000701809306010E94763C853409F4A6C0A1
:107D500080910C028E7F80930C020E94763C8032D0
:107D600009F0B8CE8091C00085FFFCCFF092C6002C
:107D7000609108027091090261157105B9F140E046
:107D800050E080910C02A82FA170B82FB27011C0E2
:107D9000BB2309F45CC0E0910601F0910701319624
:107DA000F0930701E09306014F5F5F4F46175707B7
:107DB000E8F4AA2369F3F999FECF209106013091E6
:107DC000070132BD21BDF89A90B58091C00085FFB2
:107DD000FCCF9093C6002F5F3F4F30930701209355
:107DE00006014F5F5F4F4617570718F38091C00099
:107DF00085FDE5CE8091C00085FFF8CFE0CE81E023
:107E00000E94C73C67CE0E94763C803209F08CCE3F
:107E10008091C00085FFFCCFF092C6008091C00029
:107E200085FFFCCFE092C6008091C00085FFFCCFAB
:107E3000D092C6008091C00085FFFCCFC092C600E2
:107E40008091C00085FFFCCFB092C60043CEE09188
:107E50000601F091070194918091C00085FFFCCF4D
:107E60009093C6009CCF80E10E94C73C33CE0E9415
:107E7000763C0E94763C182F0E94763C112309F430
:107E800083C0113009F484C08FE00E94C73C22CE29
:107E900080910C02816080930C02E5CE80910C02EF
:107EA000816080930C0259CF809107018823880F4D
:107EB000880B8A2180930B02809106019091070123
:107EC000880F991F90930701809306018091080203
:107ED00080FF09C080910802909109020196909359
:107EE000090280930802F894F999FECF1127E091D6
:107EF0000601F0910701C8E0D1E08091080290915D
:107F00000902103091F40091570001700130D9F34B
:107F100003E000935700E89500915700017001308D
:107F2000D9F301E100935700E89509901990009169
:107F3000570001700130D9F301E000935700E89534
:107F40001395103498F011270091570001700130FB
:107F5000D9F305E000935700E895009157000170B0
:107F60000130D9F301E100935700E895329602976A
:107F700009F0C7CF103011F00296E5CF112480919F
:107F8000C00085FFB9CEBCCE8EE10E94C73CA2CD19
:0E7F900085E90E94C73C9ECDF894FFCF80008B
:00000001FF
