:020000040000FA
:100000000C94E2000C940A010C940A010C94BE14A6
:100010000C94BE140C94BE140C940A010C940A01A6
:100020000C940A010C940A010C940A010C943615E4
:100030000C940A010C940A010C940A010C940A0114
:100040000C941C140C940A010C948C140C946614DB
:100050000C940A010C940A010C940A010C940A01F4
:100060000C94F2150C940A0107634236B79BD8A78B
:100070001A39685618AEBAAB558C1D3CB7CC5763CD
:10008000BD6DEDFD753EF6177231BF000000803F7B
:1000900008000000BE922449123EABAAAA2ABECD97
:1000A000CCCC4C3E00000080BEABAAAAAA3E000009
:1000B0000000BF000000803F000000000008417801
:1000C000D3BB4387D1133D190E3CC3BD4282AD2B38
:1000D0003E68EC8276BED98FE1A93E4C80EFFFBE30
:1000E00001C4FF7F3F00000000006372656174651A
:1000F00046696C654275666665723A2052414D20CC
:10010000616C6C6F63206661696C65642100736566
:10011000745061636B65744366675061796C6F619D
:100120006453697A653A2052414D20726573697A49
:1001300065206661696C6564210073657450616354
:100140006B65744366675061796C6F616453697A5B
:10015000653A2052414D20616C6C6F632066616985
:100160006C6564210000000000240027002A0000C4
:100170000000080002010000030407000000000066
:1001800000000000000000230026002900000000FD
:1001900000250028002B00040404040404040402C5
:1001A0000202020202030303030303010204081014
:1001B00020408001020408102001020408102000E1
:1001C0002C17832311241FBECFEFD8E0DEBFCDBF95
:1001D00012E0A0E0B1E0E0E1F9E502C005900D9287
:1001E000AE32B107D9F725E0AEE2B2E001C01D9210
:1001F000AD3EB207E1F710E0C1EED0E004C02197B8
:10020000FE010E94472BC03ED107C9F70E94F21998
:100210000C947B2C0C9400008D3009F414C1F0F484
:10022000823009F4CDC0863009F4FCC08130A1F4DD
:10023000643109F4A1C008F04DC0673009F48AC0E8
:1002400090F5633009F47AC008F581E02091FA0452
:100250003091FB04613021F180E024C0833109F446
:1002600018C1883209F426C18031B1F7603109F430
:100270000AC108F0F1C0623009F4FFC081E02091AA
:10028000380530913905633059F0E6CF643009F410
:100290005BC081E020910205309103056530E1F6F5
:1002A000232BD1F20895613109F45AC040F481E062
:1002B0002091060530910705693091F3CDCF623169
:1002C00009F454C081E020910E0530910F0563318F
:1002D00039F3C2CF653309F461C0B8F4613209F46F
:1002E00051C040F481E0209112053091130567312F
:1002F000B9F2B2CF623209F44BC081E02091160509
:1003000030911705663261F2A7CF6C3309F44CC007
:1003100048F481E020911805309119056B3309F4F8
:10032000BFCF9ACF603609F445C081E02091000527
:1003300030910105613609F4B3CF8ECF81E0209171
:10034000FC043091FD04ACCF81E02091FE0430919B
:10035000FF04A6CF81E02091040530910505A0CFD0
:1003600081E020910A0530910B059ACF81E0209120
:100370000C0530910D0594CF81E02091100530914E
:1003800011058ECF81E0209108053091090588CFB5
:1003900081E0209114053091150582CF81E02091F4
:1003A0001A0530911B057CCF81E020911C0530910E
:1003B0001D0576CF81E020911E0530911F0570CF7D
:1003C000643351F158F46331A1F081E020912A05A2
:1003D00030912B05653109F463CF3ECF623779F058
:1003E00081E02091240530912505633709F458CF29
:1003F00033CF81E0209128053091290551CF80919C
:10040000200590912105892B09F06CC081E0209195
:1004100022053091230544CF81E0209126053091BB
:1004200027053ECF662349F0683009F015CF81E0FB
:1004300020912E0530912F0533CF81E020912C059E
:1004400030912D052DCF81E020913005309131057F
:10045000633009F425CF00CF643149F081E0209169
:10046000340530913505653109F41ACFF5CE81E0B8
:10047000209132053091330513CF81E0209136056C
:10048000309137050DCF81E020913A0530913B0541
:1004900007CF603649F0603809F0DECE81E0209168
:1004A000440530914505FCCE81E020914205309114
:1004B0004305F6CE613081F048F0623009F0CCCED1
:1004C00081E02091400530914105EACE81E0209104
:1004D0003C0530913D05E4CE81E020913E05309110
:1004E0003F05DECE81E00895E62F8D3009F449C046
:1004F00088F48230F9F08630D1F1813011F5E15085
:10050000E136F8F4F0E0EE0FFF1FED5CFE4F808166
:10051000918108958331D1F1883209F441C080314D
:1005200081F4E250E43168F4F0E0EE0FFF1FE55F84
:10053000FE4FEDCF6433C1F038F4633161F06531C3
:1005400069F090E080E00895623759F06337C9F7A9
:1005500088E091E0089588E490E0089580E99BE0C8
:10056000089580E192E008958CE090E0089566237C
:1005700029F0683031F786E090E0089584E190E05A
:1005800008956330F1F68CE190E00895603629F02B
:100590006038B9F684EA90E0089588E090E0089524
:1005A000633078F6F0E0E85FFE4F808190E00895D8
:1005B000DC011896ED91FC91E60FF71F2181628115
:1005C00070E090E080E0CB0177276627722B2081D6
:1005D000622B2381922B0895833081F028F481309F
:1005E00099F08230A9F008958730A9F08830C9F0D9
:1005F0008430B1F4809180008F7D03C080918000B1
:100600008F7780938000089584B58F7784BD089597
:1006100084B58F7DFBCF8091B0008F778093B00041
:1006200008958091B0008F7DF9CF1F93CF93DF9312
:10063000282F30E0F901E159FE4F8491F901E55589
:10064000FE4FD491F901E956FE4FC491CC23A9F095
:10065000162F81110E94EC02EC2FF0E0EE0FFF1F2D
:10066000E357FE4FA591B4918FB7F894EC91111117
:1006700008C0D095DE23DC938FBFDF91CF911F910F
:100680000895DE2BF8CFCF93DF9390E0FC01E55582
:10069000FE4F249189569E4FFC0184918823D1F00E
:1006A00090E0880F991FFC01EB59FE4FA591B49182
:1006B000FC01E357FE4FC591D49161110EC09FB765
:1006C000F8948C91E22FE0958E238C932881E2237D
:1006D000E8839FBFDF91CF9108958FB7F894EC9195
:1006E000E22BEC938FBFF6CF2091010190E4299F7C
:1006F000900111248E50822B80937C0080917A008F
:10070000806480937A0080917A0086FDFCCF80918E
:1007100078009091790008953FB7F8948091200374
:1007200090912103A0912203B091230326B5A89BA9
:1007300005C02F3F19F00196A11DB11D3FBFBA2F73
:10074000A92F982F8827BC01CD01620F711D811D33
:10075000911D42E0660F771F881F991F4A95D1F7B8
:1007600008958F929F92AF92BF92CF92DF92EF92B5
:10077000FF924B015C010E948C036B017C010E9483
:100780008C036C197D098E099F09683E73408105B1
:100790009105A8F321E0821A9108A108B10888EE1A
:1007A000C80E83E0D81EE11CF11C81149104A10441
:1007B000B10429F7FF90EF90DF90CF90BF90AF90FA
:1007C0009F908F9008952FB7F89460911C037091BB
:1007D0001D0380911E0390911F032FBF089508955C
:1007E0000895EF92FF920F931F93CF93DF938C01A5
:1007F0007B01D0E0C0E0F701EC0FFD1F6491D80150
:10080000ED91FC91662349F00190F081E02DC80143
:100810000995892B11F02196EECFD801ED91FC912D
:100820000280F381E02D42E050E06BE272E0C8010B
:1008300009958C0F9D1FDF91CF911F910F91FF9014
:10084000EF900895AF92BF92CF92DF92EF92FF9216
:100850000F931F93CF93DF936C017B018B01040FE8
:10086000151FEB015E01AE18BF08C017D10759F084
:100870006991D601ED91FC910190F081E02DC601C6
:100880000995892B79F7C501DF91CF911F910F91C0
:10089000FF90EF90DF90CF90BF90AF900895FC0154
:1008A000538D448D252F30E0842F90E0821B930BD5
:1008B000541710F0CF96089501970895FC01918D7B
:1008C000828D981761F0A28DAE0FBF2FB11D5D967E
:1008D0008C91928D9F5F9F73928F90E008958FEF20
:1008E0009FEF0895FC01918D828D981731F0828DD4
:1008F000E80FF11D858D90E008958FEF9FEF08952B
:10090000FC01918D228D892F90E0805C9F4F821B8E
:1009100091098F73992708958FEF93E00E948004C7
:1009200021E0892B09F420E0822F089580E090E0F7
:10093000892B29F00E948C0481110C9400000895E9
:10094000FC01A48DA80FB92FB11DA35ABF4F2C9144
:10095000848D90E001968F739927848FA689B7893B
:100960002C93A089B1898C91837080648C93938D32
:10097000848D981306C00288F389E02D80818F7DD5
:1009800080830895EF92FF920F931F93CF93DF938D
:10099000EC0181E0888F9B8D8C8D98131AC0E889BB
:1009A000F989808185FF15C09FB7F894EE89FF898A
:1009B0006083E889F98980818370806480839FBF28
:1009C00081E090E0DF91CF911F910F91FF90EF9028
:1009D0000895F62E0B8D10E00F5F1F4F0F73112738
:1009E000E02E8C8D8E110CC00FB607FCFACFE88973
:1009F000F989808185FFF5CFCE010E94A004F1CF57
:100A0000EB8DEC0FFD2FF11DE35AFF4FF0829FB7E6
:100A1000F8940B8FEA89FB8980818062CFCFCF93D6
:100A2000DF93EC01888D8823B9F0AA89BB89E88916
:100A3000F9898C9185FD03C0808186FD0DC00FB6BC
:100A400007FCF7CF8C9185FFF2CF808185FFEDCF3A
:100A5000CE010E94A004E9CFDF91CF9108952091AB
:100A6000B6023091B7022817390771F49091B40299
:100A70008091B502981741F0E091B402F0E0EC5893
:100A8000FD4F808190E008958FEF9FEF08950895C6
:100A9000EF92FF920F931F93CF93DF93DC015C964D
:100AA000ED90FC905D97E114F10479F481E090E021
:100AB00013969C938E93129790E080E0DF91CF91F4
:100AC0001F910F91FF90EF9008955196ED91FC9139
:100AD000529750968C915097982F90950FB75E969D
:100AE0002C915E97122F127021FD6095F894208151
:100AF000112319F1282B2083E7012197F1F728E032
:100B0000462F50E0308160FF1AC0382B3083E70158
:100B10002197F1F7BA0175956795215089F711234F
:100B200081F08081892380830FBF5C968D919C9199
:100B30000197F1F781E090E0C1CF2923DCCF392381
:100B4000E5CF9081892BEFCF2091B6023091B7028B
:100B50002817390761F48091B5022091B40290E022
:100B6000805C9F4F821B91098F739927089590E0B5
:100B700080E008952091B6023091B7022817390716
:100B8000B9F49091B4028091B502981789F0E09180
:100B9000B402F0E0EC58FD4F80812091B40230E0C7
:100BA0002F5F3F4F2F7333272093B40290E00895B7
:100BB0008FEF9FEF08958F929F92AF92BF92FF9217
:100BC0000F931F93CF93DF93FC01F0808BE08F1581
:100BD00008F44FC0828108E512E0081B110987FD67
:100BE0001395000F111F000F111F8181C8E8D0E07D
:100BF000C81BD10987FDD395CC0FDD1FCC0FDD1F9E
:100C00004E010D2E000CAA08BB08DB01653B7105E7
:100C100014F0A4EBB0E09801012E000C440B550B2E
:100C2000281939094A095B090E94362724EB30E06C
:100C300040E050E00E940C27820E931EA41EB51EB9
:100C40008C169D062CF0E801801691060CF4E40148
:100C50002297CC0FDD1F2FB7F8948F2D90E0FC0169
:100C6000EE0FFF1FE80FF91FE652FD4FD283C1833D
:100C70002FBFDF91CF911F910F91FF90BF90AF9049
:100C80009F908F900895892B79F41092800082E0D4
:100C9000809381001092850010928400B19A809117
:100CA0006F00826080936F00089520914F02260F9D
:100CB0003327331F21323105ECF420916E03FC0100
:100CC00090E080E0243069F082E00895A0914F0226
:100CD0002191AC01415D5D4FA40FB52FB11D2C9347
:100CE0000196861798F380914F02680F60934F0228
:100CF00080E0089581E0089510926E0381E0809372
:100D00006D031092480361E082E10E94150361E0E7
:100D100083E10E941503E9EBF0E080818E7F808300
:100D200080818D7F808388E48093B80085E4809300
:100D3000BC000895CF93DF9391E090932E02882317
:100D4000B9F0C091B800D091BA008091BC008A7B04
:100D50008093BC0060E082E10E94150360E083E1C3
:100D60000E9415030E947C06D093BA00C093B8007D
:100D7000DF91CF9108958F929F92AF92BF92CF92C1
:100D8000DF92EF92FF920F931F93CF93DF93D09157
:100D90009703D13208F0D7C0182FC09196030E9454
:100DA0008C036B017C0180916E0381116BC082E02A
:100DB00080936E0310936D038FEF80936C031092FA
:100DC0006B03D0936A03A6E7B3E0EAE4F3E080E0C4
:100DD000D81391C01092490380914903CC0FC82BBE
:100DE000C093490380914803813009F088C0109274
:100DF00048030E948C036B017C018091490380931E
:100E0000BB008091700390917103A0917203B09127
:100E10007303892B8A2B8B2BA1F00E948C030091EA
:100E200070031091710320917203309173036C1958
:100E30007D098E099F09061717072807390708F447
:100E400042C08091BC0083FDD8CF85EC8093BC006C
:100E50000E948C036B017C0180916E03823009F447
:100E600050C080916C038F3F09F46FC080916C0378
:100E7000803209F46CC080916C03803309F469C03E
:100E800084E026C08091700390917103A091720359
:100E9000B0917303892B8A2B8B2B09F484CF0E948A
:100EA0008C038090700390907103A0907203B090B7
:100EB00073036C197D098E099F0986169706A8068B
:100EC000B90608F070CF80916F030E949A0685E002
:100ED000109275031092970310927403DF91CF91D3
:100EE0001F910F91FF90EF90DF90CF90BF90AF9048
:100EF0009F908F9008959D9191938F5F69CF85EE1C
:100F0000A5CF8091700390917103A0917203B0916D
:100F10007303892B8A2B8B2B09F49ECF0E948C03A1
:100F2000009170031091710320917203309173034B
:100F30006C197D098E099F090617170728073907BD
:100F400008F08ACFC0CF81E0C3CF80E0C1CF82E07C
:100F5000BFCF83E0BDCFCF92DF92EF92FF920F938E
:100F60001F93CF93DF93D82FC62F613208F098C01C
:100F70000E948C036B017C0180916E0381116BC018
:100F800081E080936E0380936D039FEF90936C03D9
:100F900010926B039C0F90936A0380934903809196
:100FA0004903DD0FD82BD09349038091480381304A
:100FB00009F078C0109248030E948C036B017C01F9
:100FC000809149038093BB008091700390917103DD
:100FD000A0917203B0917303892B8A2B8B2BA1F004
:100FE0000E948C0300917003109171032091720391
:100FF000309173036C197D098E099F090617170735
:101000002807390708F448C08091BC0083FDD8CF79
:1010100085EC8093BC000E948C036B017C01809165
:101020006E03813009F440C080916B038C1710F47B
:10103000C0916B03EAE4F3E0A8E2B3E080E08C1334
:1010400055C08C2FDF91CF911F910F91FF90EF90A2
:10105000DF90CF9008958091700390917103A091DB
:101060007203B0917303892B8A2B8B2B09F484CFE5
:101070000E948C0300917003109171032091720300
:10108000309173036C197D098E099F0906171707A4
:101090002807390708F070CF80916F030E949A06E5
:1010A000C0E0CFCF85EEB5CF8091700390917103F2
:1010B000A0917203B0917303892B8A2B8B2B09F4B7
:1010C000AECF0E948C0300917003109171032091A8
:1010D0007203309173036C197D098E099F090617FD
:1010E00017072807390708F09ACFD6CF91919D931B
:1010F0008F5FA5CFE091250380912403E81730F49A
:10110000F0E0E85DFC4F808190E008958FEF9FEF65
:10111000089590912503809124032FEF3FEF9817B6
:1011200048F4E92FF0E0E85DFC4F208130E09F5F5C
:1011300090932503C901089580912403909125037C
:10114000891B990B0895CF92DF92EF92FF920F9334
:101150001F93CF93DF937C01CB018A01209174030D
:10116000222389F0EB016B01C40ED51ECC15DD05E1
:1011700069F06991D701ED91FC910190F081E02D2A
:10118000C7010995F3CF642F0E945506C801DF916E
:10119000CF911F910F91FF90EF90DF90CF90089526
:1011A000CF93DF931F92CDB7DEB76983209174038D
:1011B0002223F9F020919703203258F021E030E00B
:1011C000FC013383228390E080E00F90DF91CF9188
:1011D000089580917503E82FF0E0EA58FC4F99815B
:1011E00090838F5F809375038093970381E090E0F5
:1011F000ECCF61E0CE0101960E945506F7CF90E05A
:1012000080E00895880F991FFC01E456FB4F208170
:10121000318150E040E02C56314041095109A8ECA1
:10122000B0E00E942B2728E235E040E050E00E9429
:101230000C278CE9820F089581E08093010184E1FD
:101240000E9474036AE070E080E090E00E94B103C5
:1012500084E10E947403BC0190E080E00E94892830
:1012600020E030E040EA5BE30E94402928E232EED1
:101270004BE65DE30E94E1270895FB0190818927F9
:1012800090E1899F90011124822790E0382F222736
:10129000AC0163E0440F551F6A95E1F72427352719
:1012A000418150E02427352774E0959587957A95FC
:1012B000E1F7822793279183808308959F92AF92CD
:1012C000BF92CF92DF92EF92FF920F931F93CF9333
:1012D000DF9300D0CDB7DEB78C01942E8EEFD8010E
:1012E00012968C93129713966C93139781E0159630
:1012F0008C93159716968C93169780919F0314964E
:101300008C938F5F80939F03E62EF12C8FEF9FEFDE
:101310009A83898367015801B3E0AB0EB11CE1E009
:10132000CE1AD108BE016F5F7F4FFAEFCF16FFEFE5
:10133000DF0631F0D5018D915D010E943D09EFCFAF
:10134000892D0E943D0939812A81C8010896F8013A
:10135000A381A80FB92FB11D3C93E381E80FF92FAA
:10136000F11D2183C70108960F900F90DF91CF9157
:101370001F910F91FF90EF90DF90CF90BF90AF90B3
:101380009F900895CF92DF92EF92FF920F931F9359
:10139000CF93DF937C018B018091D3059091D4058D
:1013A000C091D105D091D205C81BD90B6C177D0710
:1013B00008F4EB012091CF053091D005AE01B701C3
:1013C000820F931F0E94722C6801CC1ADD0A79F1FA
:1013D000B7016C0F7D1FA6018091CF059091D005BC
:1013E0000E94722CD092D405C092D3058091D3056F
:1013F0009091D4052091D5053091D6058217930799
:1014000008F1821B930B2091D7053091D80528173E
:10141000390720F49093D8058093D705DF91CF91B9
:101420001F910F91FF90EF90DF90CF9008958091E2
:10143000D3059091D405080F191F1093D40500937C
:10144000D305D4CF4091D1055091D205840F951F7B
:10145000D8CF0F931F93CF93DF93CDB7DEB7CC5682
:10146000D1090FB6F894DEBF0FBECDBFFC010381DA
:1014700010E0085F1F4FBC016E5F7F4FA801CE01D7
:1014800001960E94722CA801BE016F5F7F4F84ED10
:1014900093E00E942204C459DF4F0FB6F894DEBFD8
:1014A0000FBECDBFDF91CF911F910F9108958F9205
:1014B0009F92AF92BF92CF92DF92EF92FF920F93E3
:1014C0001F93CF93DF9300D000D0CDB7DEB7B82EF7
:1014D0008B01942EA22E8091B8059091B905C090F1
:1014E0006D05D0906E05009751F00397A9F5DB01CB
:1014F00011966C9111978C910E9474026C01F80105
:10150000828193810496248135812817390750F40C
:101510008091C4058B0D8093C4059091C505890FFA
:101520008093C505D8011496ED90FC901597E114B1
:10153000F104B1F4BC92F6E0CF0ED11CD8011496A0
:101540008D919C918C159D0509F0E5C28091B705A0
:10155000882309F4DCC2DFC282E0C82ED12CCFCFB1
:10156000B1E0EB16F10419F4F801B182E4CF8B2D50
:1015700090E0F2E0EF16F10441F0F80182819381EE
:10158000F3E0EF16F10439F49B29D80113969C93EC
:101590008E931297D0CF9C012C5F3F4FE216F3063B
:1015A00019F4F801B286C7CF0596E816F90609F0D6
:1015B00093C2D8011B96BC921B971092F404109210
:1015C000F3041A969C911A978091C405981367C2E8
:1015D0008091C505B81263C281E090E01D969C938E
:1015E0008E931C978093DC058C9189112FC21196E4
:1015F0009C919A112BC221E030E0F80137872687B1
:101600009091B70591110AC2813009F007C2F80123
:101610008181873009F002C2828193818C359105E6
:1016200009F0FCC1E0900405F0900505E114F10417
:1016300009F4F4C170E060E0C8010E94D802D7014B
:1016400011966D937D938D939C931497209104052F
:1016500030910505F801A085B18514968D919C9176
:10166000D90116969C938E9315972091040530917D
:101670000505A085B18516968C91F9018783209187
:10168000040530910505F801A085B18517968C9168
:10169000D90118968C932091040530910505A085F9
:1016A000B18518968C91F9018187209104053091BC
:1016B0000505F801A085B18519968C91D9011A9676
:1016C0008C932091040530910505A085B1851A966B
:1016D0008C91F90183872091040530910505F8016B
:1016E000A085B1851B968C91D9011C968C93E090B6
:1016F0000405F09005056CE070E0C8010E94D80276
:10170000F701658776878787908BE0900405F090D6
:10171000050560E170E0C8010E94D802D70151962A
:101720006D937D938D939C935497E0900405F09076
:101730000505D8011896ED91FC9119978489F70158
:10174000858B1896ED91FC918589D70156968C93DF
:10175000D8011896ED91FC9119978689F701878B2E
:101760001896ED91FC918789D70158968C9368E182
:1017700070E0C8010E94D802F701618F728F838FD9
:10178000948F6CE170E0C8010E94D802D7015D9689
:101790006D937D938D939C93909760E270E0C80168
:1017A0000E94D802F70161A372A383A394A364E209
:1017B00070E0C8010E94D802D70195966D937D9381
:1017C0008D939C93989768E270E0C8010E94D802BC
:1017D000F70161A772A783A794A76CE270E0C80124
:1017E0000E94D802D7019D966D937D938D939C9313
:1017F000D09760E370E0C8010E94D802F70161ABA6
:1018000072AB83AB94AB64E370E0C8010E94D80272
:10181000D701D5966D937D938D939C93D89768E36C
:1018200070E0C8010E94D802F70161AF72AF83AFC8
:1018300094AF6CE370E0C8010E94D802F701FD96F6
:10184000608371838283938360E470E0C8010E94A7
:10185000D802F701EF5BFF4F60837183828393832C
:1018600064E470E0C8010E94D802F701EB5BFF4F0F
:10187000608371838283938368E470E0C8010E946F
:10188000D802F701E75BFF4F608371838283938304
:10189000D8011896ED91FC911997E45BFF4F808178
:1018A0009181F701E35BFF4F918380831896ED915F
:1018B000FC91E25BFF4F8081F701E15BFF4F80838A
:1018C00064E570E0C8010E94D802F701EB5AFF4FAF
:1018D0006083718382839383D701A75ABF4FF80136
:1018E00080859185FC01E85AFF4F808191818D931D
:1018F0009C93D8011896ED91FC91E65AFF4F808198
:101900009181F701E55AFF4F9183808332968FEFE3
:101910009FEFDC0180839183A283B383349680831D
:101920009183A283B3833896A081B181109789F007
:10193000F701808183FD0DC031968CE501900D92F9
:101940008A95E1F7E0910405F091050580818860B2
:101950008083E0910405F0910505808182FF5EC0DF
:101960008091CF059091D005892B09F457C0209123
:10197000D1053091D2052115310509F44FC0D801A8
:1019800012964D915C91485F5F4F8091D305909185
:10199000D4056091D5057091D6058617970708F490
:1019A0007BC0861B970B281B390B24173507B0F11A
:1019B00085EB8B8382E68C8362E070E0CE01039638
:1019C0000E94C20961E070E0C8010E94C20961E0A2
:1019D00070E0C80101960E94C209F80192818381DA
:1019E00099838A8362E070E0CE0101960E94C20969
:1019F000D80112966D917C91139718968D919C91B8
:101A00000E94C20961E070E0C8010A960E94C20902
:101A100061E070E0C8010B960E94C2098091B80590
:101A20009091B905039709F086CD80917105909149
:101A30007205009711F00E94E92B10927205109226
:101A400071051092B0051092AF0575CD853009F083
:101A5000D7CDD80111969C911197913051F41896D9
:101A6000ED91FC9190819912CBCD9181A912C8CDB5
:101A7000C2CD9111C5CD1896ED91FC911997908129
:101A80009912BECD9181A912BBCD23E030E01F9603
:101A90003C932E931E97B4CD820F931F82CFF801F3
:101AA000158614868081981209C09181A91206C0FA
:101AB000D8011F961C921E921E97B0CF853009F058
:101AC000ADCFD8011896ED91FC9180819812A6CFE8
:101AD0008181A812A3CFECCFF80186809780618125
:101AE00080810E940C01882311F0912C812C80911F
:101AF000B705811120CDF4E0EF1AF108E814F904DC
:101B000008F419CDE818F908EC14FD04D8F0109287
:101B1000F4041092F304F801848195810196958371
:101B200084830F900F900F900F90DF91CF911F91B2
:101B30000F91FF90EF90DF90CF90BF90AF909F906C
:101B40008F900895D80118968D919C91E80EF91EFA
:101B5000F701B082F0CC2F923F924F925F926F923A
:101B60007F928F929F92AF92BF92CF92DF92EF922D
:101B7000FF920F931F93CF93DF93382E262E0E9450
:101B8000E3030091BE051091BF052091C00530917F
:101B9000C105AB01BC01401B510B620B730B809163
:101BA000BA0590E0B0E0A0E0481759076A077B0744
:101BB00008F45CC280914C0590914D0520915D0523
:101BC00031E03093740320939603109275031092C2
:101BD0009703DC01ED91FC910190F081E02D6DEF18
:101BE000099580E00E94BB068823A1F080E0DF9188
:101BF000CF911F910F91FF90EF90DF90CF90BF900A
:101C0000AF909F908F907F906F905F904F903F909C
:101C10002F90089562E080915D050E94AB071092BD
:101C2000250380932403823009F780914C0590911D
:101C30004D05DC01ED91FC910284F385E02D0995C1
:101C4000C82F80914C0590914D05DC01ED91FC91E0
:101C50000284F385E02D099500E01C2F082B011567
:101C6000110559F40E94E3036093BE057093BF050C
:101C70008093C0059093C105B9CF17FD1F77442409
:101C80004394512C63E0662E712C72E0872E912CC8
:101C90000115110509F4EAC1E090F504F12C0E15C7
:101CA0001F0508F478016E2D613208F060E2809122
:101CB0005D050E94AB0710922503809324038E15C7
:101CC0001F0409F093CFD12CC12CCE14DF0408F0EF
:101CD000CAC180914C0590914D05DC01ED91FC91BC
:101CE0000284F385E02D0995EC01282F8091F304FF
:101CF0009091F4040297A8F4C53B09F04EC01092ED
:101D0000C3051092C2059092F4048092F3041092DD
:101D10008C0510928B051092B7059092B9058092B0
:101D2000B8054091F3045091F4044230510509F094
:101D300065C18091C2059091C305009709F042C02A
:101D4000253B21F01092F4041092F3048091B80521
:101D50009091B905222D432D67E775E081309105FB
:101D600061F067E975E0009741F067EA75E0029776
:101D700021F4222D432D67E875E08C2F0E94570A2D
:101D80008091C2059091C30501969093C3058093FD
:101D9000C2052FEFC21AD20A98CFC43239F410927A
:101DA000C6055092F4044092F304BBCFC33D09F042
:101DB000B8CF10924705109246057092F4046092D5
:101DC000F304AFCF8130910521F4223609F0BACF68
:101DD000BDCF82309105B9F4C09387051092C40538
:101DE0001092C50510928C0510928B059093940566
:101DF0008093930580919D0590919E0590938E050B
:101E000080938D05A3CF8330910509F072C0C093F4
:101E10008805B090870585E0B81609F497CF3B1088
:101E200013C0221211C01092B9051092B805309259
:101E300097052092980580918B0590918C05909341
:101E40009C0580939B0582CF6C2F8B2D0E940C01EB
:101E5000882309F44AC06C2F8B2D0E9474025C0108
:101E60008091710590917205009711F00E94E92B05
:101E7000A114B10419F4AA24A394B12CC5010E94A1
:101E80004D2B90937205809371059093B0058093CC
:101E9000AF05509187054091880520918B053091C1
:101EA0008C05892B69F41092B9051092B8055093EE
:101EB00097054093980530939C0520939B0546CF4A
:101EC0007092B9056092B8055093A7054093A80594
:101ED0003093AC052093AB0580918D0590918E05D4
:101EE0009093AE058093AD0531CFA1E0A093B705E7
:101EF0002DCF8430910539F4CE01992790938A052E
:101F00008093890523CF8530910549F43C2F222702
:101F10008091890590918A05822B932BEFCF863093
:101F2000910579F48091890590918A05892B19F49E
:101F3000C09391050BCFE0918F05F0919005C08380
:101F400005CF079709F002CF8091890590918A0506
:101F5000009709F048C0C09392058091B805909110
:101F6000B905029709F0F2CE20918705253009F0D6
:101F700000CFE0918F05F091900580813812F9CE65
:101F800081812812F6CE8091890590918A05823050
:101F9000910509F0EECE5092B9054092B805209314
:101FA0007705209188052093780590937A05809392
:101FB000790580918B0590918C0590937C05809399
:101FC0007B05A0917F05B091800580818C93E09185
:101FD0007F05F0918005A0918F05B0919005119635
:101FE0008C918183B3CE019719F4C0939105B5CF3D
:101FF000E0918F05F0919005C183AFCF433051053B
:1020000009F0C7CE80914605909147058130910532
:10201000D9F4DC2FCC27CC27D370D0932703C093DF
:102020002603019690934705809346052091260349
:10203000309127038217930711F450E040E050934A
:10204000F4044093F304A5CE8230910551F720911A
:102050002603309127032C2B2A5F3F4F3093270311
:1020600020932603DECF0E191F0912CE81E0BFCDCB
:102070002F923F924F925F926F927F928F929F9298
:10208000AF92BF92CF92DF92EF92FF920F931F9386
:10209000CF93DF9300D000D0CDB7DEB71C01809185
:1020A000970590919805980F2091990530919A0580
:1020B000592F520F452F430F4093A105890F850FCC
:1020C000840F8093A205E0919F05F091A005A901DE
:1020D0004E0F5F1F4E175F0761F081919091A10530
:1020E000890F8093A1059091A205890F8093A20585
:1020F000F1CF80914A0590914B05892B09F03AC1A7
:10210000290188E0480E511C7201712C612CD12CE0
:10211000C12CD9011696BA83A983E114F10409F4FC
:1021200024C1B091F5048B2F90E09C838B83E8163B
:10213000F90610F4FC82EB82AB81BC81EA1AFB0A3F
:10214000B1E0EB16F10441F48B819C8101979C83F3
:102150008B8382E0E82EF12C80914C0590914D0507
:1021600020915D05A1E0A093740320939603109243
:10217000750310929703B12CA12CC114D10409F05E
:10218000A3C0DC01ED91FC910190F081E02D65EBA5
:10219000099580914C0590914D05DC01ED91FC91E4
:1021A0000190F081E02D62E6099580914C059091B7
:1021B0004D05DC01ED91FC910190F081E02D6091E5
:1021C0009705099580914C0590914D05DC01ED91A5
:1021D000FC910190F081E02D609198050995809126
:1021E0004C0590914D05DC01ED91FC910190F08141
:1021F000E02D60919905099580914C0590914D05D0
:1022000060919A05DC01ED91FC910190F081E02D47
:10221000099506E010E04601860C971C809199050F
:1022200090919A05C816D90608F58B819C810817EC
:102230001907E0F480914C0590914D0520919F0580
:102240003091A005820E931EDC01ED91FC9101906E
:10225000F081E02DD4016C9109950F5F1F4FBFEF06
:10226000CB1ADB0AD8CF3401680157CF8B819C8110
:10227000029708171907E1F480914C0590914D05DC
:10228000DC01ED91FC910190F081E02D6091A105C0
:10229000099580914C0590914D05DC01ED91FC91E3
:1022A0000190F081E02D6091A20509950B811C81C0
:1022B00004151505C0F68091D9050E94BB06882338
:1022C00091F28CE090E0C6C086010A0D1B1D43010F
:1022D0008A0C9B1C8B819C818A159B05F1F0809157
:1022E000990590919A0588169906B8F480914C0545
:1022F00090914D0520919F053091A005820E931E6F
:10230000DC01ED91FC910190F081E02DD4016C9104
:102310000995BFEFAB1ABB0AD7CF89819A810817FD
:10232000190731F6AB81BC811297AA16BB0609F0DA
:10233000BFCF80914C0590914D05DC01ED91FC9152
:102340000190F081E02D6091A105099580914C05E7
:1023500090914D05DC01ED91FC910190F081E02D13
:102360006091A20509958201A3CF81E00E94BB067E
:102370008111A7CFB0919705BB8330919805398320
:102380006101F12CE12CB63009F0E4C082E090E06C
:102390009093A4058093A30590938405809383056F
:1023A00090939405809393059093B4058093B3051F
:1023B0009093A6058093A505909386058093850547
:1023C00090939605809395059093B6058093B505F7
:1023D0000E94E303C60ED71EE81EF91E0E94E30307
:1023E0006C157D058E059F0508F095C080914A0506
:1023F00090914B05892B39F061E070E080E090E02E
:102400000E94B103EBCF698186E00E94AB0D882367
:1024100099F32091A5053091A605809185059091AD
:1024200086052130310569F58130910509F04EC0EE
:102430002091A3053091A4058091970521303105A5
:1024400049F5863039F580919805B9818B1327C0FD
:102450008BE090E00F900F900F900F90DF91CF9155
:102460001F910F91FF90EF90DF90CF90BF90AF90B2
:102470009F908F907F906F905F904F903F902F90A4
:1024800008952230310591F481309105F9F48AE004
:1024900090E0E0CF863019F08DE090E0DBCF8091C6
:1024A00098053981831709F4A7CFF6CF81309105BC
:1024B00069F4232B09F0A0CF8091A3059091A40586
:1024C000892B09F099CF82E090E0C4CF8330910549
:1024D00009F4AAC021303105A9F4892B09F08CCF69
:1024E0008091A3059091A405019709F085CF809173
:1024F0009705863009F080CF8091980599818913DE
:102500007BCFA6CF232B09F077CF892B09F074CF8F
:1025100081E090E09FCF8091A5059091A60501975D
:10252000B1F48091850590918605029781F48091A0
:10253000A3059091A405019751F4809197058630E9
:1025400031F480919805A9818A1709F481CF83E03D
:1025500090E080CF82E090E09093A4058093A30563
:1025600090938405809383059093940580939305BD
:102570009093B4058093B3059093A6058093A50529
:102580009093860580938505909396058093950595
:102590009093B6058093B5050E94E3034B015C015F
:1025A0000E94E303681979098A099B096C157D0566
:1025B0008E059F0560F680914A0590914B05892B09
:1025C00039F061E070E080E090E00E94B103E8CF74
:1025D00069818B810E94AB0D882399F38091A505B9
:1025E0009091A60581309105E1F4809197052091A5
:1025F000A3053091A4052130310579F4BB81B813CE
:102600004BCF809198053981831709F421CF8091B0
:102610009805A9818A17A9F23FCF9B819817B9F332
:102620003BCF892B71F64FCF84E090E013CFCF934F
:1026300080914A0590914B05892B09F445C0809102
:102640004A0590914B05892BE1F580912C059091DD
:102650002D05892B69F485E190E00E944D2B909324
:102660002D0580932C05009709F43FC0FC01148AC6
:1026700086E0809397051092980581E090E0909312
:102680009A058093990510929E0510929D05E09100
:102690006F05F091700510828CE494E00E94381070
:1026A000C1E08B30910519F00D9709F0C0E08091E1
:1026B0002C0590912D050E94E92B10922D0510926A
:1026C0002C058C2FCF91089580915D0591E090931A
:1026D000740380939603109275031092970381E020
:1026E0000E94BB06882309F4AACFC0E0EACF8BE69C
:1026F00090E00E944D2B9093050580930405009770
:10270000D1F0FC011082EB59FF4F118210823296FA
:10271000118210823296118210823C9710821182AF
:10272000128213828F599F4FFC01108211821282F4
:10273000138281E0089580E00895CF93DF93EC0148
:102740008091040590910505892B11F40E9477135F
:10275000E0910405F09105053097A1F18081837027
:102760008330A9F480914A0590914B05892B21F47F
:1027700067E081E00E94AB0DE0910405F091050552
:10278000E35AFF4F80818170DF91CF9108958130AE
:10279000C9F081E08093970587E0809398051092B7
:1027A0009A051092990510929E0510929D05CE01F2
:1027B0000E9438109C0181E02B30310529F32D3027
:1027C000310511F380E0E0CF85ED8093BC0080916E
:1027D000700390917103A0917203B09173030796F7
:1027E000A11DB11D23E0B695A795979587952A95CC
:1027F000D1F72091BC0024FD03C010926E03089510
:102800004091700350917103609172037091730352
:10281000452B462B472B69F30097A105B10541F0E5
:102820002AE22A95F1F700C00197A109B109E1CF89
:1028300080916F030C949A061F920F920FB60F921D
:1028400011242F933F938F939F93AF93BF938091C6
:102850001C0390911D03A0911E03B0911F033091A2
:102860001B0323E0230F2D3758F50196A11DB11D41
:1028700020931B0380931C0390931D03A0931E03BE
:10288000B0931F038091200390912103A091220314
:10289000B09123030196A11DB11D80932003909355
:1028A0002103A0932203B0932303BF91AF919F9183
:1028B0008F913F912F910F900FBE0F901F90189501
:1028C00026E8230F0296A11DB11DD2CF1F920F92B1
:1028D0000FB60F9211242F933F934F935F936F93F3
:1028E0007F938F939F93AF93BF93EF93FF938FEF5C
:1028F00093E00E94A004FF91EF91BF91AF919F914F
:102900008F917F916F915F914F913F912F910F9098
:102910000FBE0F901F9018951F920F920FB60F9237
:1029200011242F938F939F93EF93FF93E0910F04C4
:10293000F09110048081E0911504F091160482FD5D
:102940001BC09081809118048F5F8F7320911904B0
:10295000821741F0E0911804F0E0E150FC4F958FB0
:1029600080931804FF91EF919F918F912F910F9079
:102970000FBE0F901F9018958081F4CF1F920F9279
:102980000FB60F9211242F933F934F935F936F9342
:102990007F938F939F93AF93BF93EF93FF93E091B8
:1029A000B602F091B702309749F0A685B7858585C4
:1029B000968D91FF14C09C918923A1F4FF91EF9112
:1029C000BF91AF919F918F917F916F915F914F9147
:1029D0003F912F910F900FBE0F901F9018959C91D3
:1029E000892361F7A389B4899C918589809589237E
:1029F0008C93868997890197F1F7608D718DA685F3
:102A0000B785558538E020E0CB010197F1F7822F9B
:102A100090E095958795282F4C91452309F02068E3
:102A2000315091F7868D81FD20958091B50290E01F
:102A300001968F7399273091B402381799F0A091BD
:102A4000B502B0E0AC58BD4F2C938093B502828D97
:102A5000938D0197F1F7A389B4898C919589892B7E
:102A60008C93ACCF868D8160868FF1CF1F920F92B1
:102A70000FB60F9211242F933F934F935F936F9351
:102A80007F938F939F93AF93BF93CF93DF93EF93F6
:102A9000FF9380917202C0917302D0E087FF24C03F
:102AA0001092850010928400809172028F5F809353
:102AB000720280917202082E000C990B8C179D07F0
:102AC00024F4809172028C30C4F180918400909142
:102AD0008500049680349C4908F47AC08091840073
:102AE00090918500049676C080917202082E000CA9
:102AF000990B8C179D07C4F6E09172028E2FEE0F92
:102B0000990BFC01EE0FFF1FE80FF91FE652FD4F76
:102B1000808186FFC9CFE09172028E2FEE0F990B54
:102B2000FC01EE0FFF1FE80FF91FE652FD4F8081F9
:102B300060E08F730E941503B7CF2091840030911D
:102B40008500E09172028E2FEE0F990BFC01EE0FC3
:102B5000FF1FE80FF91FE652FD4F81819281820F1E
:102B6000931F9093890080938800E09172028E2FCA
:102B7000EE0F990BFC01EE0FFF1FE80FF91FE65255
:102B8000FD4F808186FF11C0E09172028E2FEE0F03
:102B9000990BFC01EE0FFF1FE80FF91FE652FD4FE6
:102BA000808161E08F730E941503FF91EF91DF91A7
:102BB000CF91BF91AF919F918F917F916F915F91D5
:102BC0004F913F912F910F900FBE0F901F9018952E
:102BD00080E49CE990938900809388008FEF809334
:102BE0007202E3CF1F920F920FB60F9211242F9310
:102BF0003F934F935F936F937F938F939F93AF9385
:102C0000BF93EF93FF938091B900887F803609F4DA
:102C10004AC0F0F5883209F4A7C018F5803109F4EC
:102C20009BC0B8F4882309F4F9C0883009F494C033
:102C3000FF91EF91BF91AF919F918F917F916F9194
:102C40005F914F913F912F910F900FBE0F901F906A
:102C50001895883109F488C0803251F780936C034D
:102C600014C0803409F49DC040F48033B9F3883334
:102C7000F9F680936C0385ECB0C0803509F485C00B
:102C8000883509F496C0883499F60E94E413D0CFB1
:102C9000883909F48CC038F5883729F050F4883623
:102CA00011F0803729F683E080936E031092710251
:102CB00057C0883809F47BC0803919F0803809F092
:102CC000B7CF80917102803208F071C0E09171023B
:102CD00081E08E0F809371028091BB00F0E0EF5A8B
:102CE000FD4F80833DC0803B39F0E0F4803A09F429
:102CF00079C0883A09F09CCF84E080936E031092EB
:102D0000500210924F02E091B802F091B902099579
:102D100080914F0281110FC081E080934F02109289
:102D20002F0209C0803C09F4A6CF883C09F4A3CF48
:102D3000883B09F07DCFE091500281E08E0F8093B7
:102D40005002F0E0E15DFD4F80818093BB009091E7
:102D5000500280914F0229C0809149038093BB00AB
:102D600085EC8093BC0064CF90916B0380916A03E3
:102D7000981758F5E0916B0381E08E0F80936B03F9
:102D8000F0E0E65BFC4F8081E9CFE0916B0381E0EE
:102D90008E0F80936B038091BB00F0E0E65BFC4FED
:102DA000808390916B0380916A039817C8F285E83D
:102DB000D8CFE0916B0381E08E0F80936B038091FD
:102DC000BB00F0E0E65BFC4F808380916D038111D6
:102DD0005CCF81E08093480384EA8093BC0010922A
:102DE0006E0326CF85EC8093BC0010926E03809119
:102DF0007102803230F4E0917102F0E0EF5AFD4F41
:102E000010826091710270E0E091BA02F091BB0211
:102E100081E592E00995109271020ACF10926C033D
:102E200034CFFC01909173029C3098F481E0890FBB
:102E3000809373029083892F90E0FC01EE0FFF1FB7
:102E4000E80FF91FE652FD4F88EB9BE092838183E8
:102E500008958FEF80830895CF92DF92EF92FF92D3
:102E6000109202041092010498EEC92E93E0D92E1C
:102E7000E12CF12CC0920304D0920404E0920504EA
:102E8000F092060489EF91E0909300048093FF0391
:102E900085EC90E090930C0480930B0484EC90E01C
:102EA00090930E0480930D0480EC90E090931004B6
:102EB00080930F0481EC90E09093120480931104AE
:102EC00082EC90E0909314048093130486EC90E0DD
:102ED000909316048093150410921804109219040C
:102EE00010921A0410921B041092CB031092CA0382
:102EF000C092CC03D092CD03E092CE03F092CF03E8
:102F00008BE092E09093C9038093C80386EE95E02E
:102F10000E94111783EE95E00E94111780EE95E054
:102F20000E9411171092F4041092F30480E280932F
:102F3000F5041092F7041092F6041092F90410921E
:102F4000F8041092FB041092FA041092FD041092FF
:102F5000FC041092FF041092FE04109201051092DE
:102F600000051092030510920205109205051092BB
:102F7000040510920705109206051092090510929B
:102F8000080510920B0510920A0510920D0510927B
:102F90000C0510920F0510920E051092110510925B
:102FA000100510921305109212051092150510923B
:102FB000140510921705109216051092190510921B
:102FC000180510921B0510921A0510921D051092FB
:102FD0001C0510921F0510921E05109221051092DB
:102FE00020051092230510922205109225051092BB
:102FF000240510922705109226051092290510929B
:10300000280510922B0510922A0510922D0510927A
:103010002C0510922F0510922E051092310510925A
:10302000300510923305109232051092350510923A
:10303000340510923705109236051092390510921A
:10304000380510923B0510923A0510923D051092FA
:103050003C0510923F0510923E05109241051092DA
:1030600040051092430510924205109245051092BA
:10307000440510924705109246051092490510929A
:10308000480510924B0510924A0510925105109276
:103090005005109255051092540582E480935D0509
:1030A00010925E0510925F051092600510926E05F9
:1030B00010926D051092700510926F0510927205B6
:1030C0001092710510927405109273051092750597
:1030D00080E880937605109277051092780510921B
:1030E0007A051092790510927C0510927B0510925A
:1030F0007E0510927D0589E695E09093800580938A
:103100007F05109281051092820582E090E09093F5
:10311000840580938305909386058093850510929E
:1031200087051092880510928A05109289051092E1
:103130008C0510928B0510928E0510928D052BE652
:1031400035E03093900520938F05109291051092F1
:1031500092059093940580939305909396058093A0
:103160009505109297051092980510929A05109265
:10317000990510929C0510929B0510929E05109245
:103180009D051092A00510929F051092A105109226
:10319000A2059093A4058093A3059093A605809320
:1031A000A5051092A7051092A8051092AA051092E5
:1031B000A9051092AC051092AB051092AE051092C5
:1031C000AD051092B0051092AF051092B1051092A6
:1031D000B2059093B4058093B3059093B6058093A0
:1031E000B5051092B7059093B9058093B80584E6AC
:1031F0008093BA058093BB058093BC0589E08093DA
:10320000BD051092BE051092BF051092C005109228
:10321000C10588E58093C7051092CE051092D005B0
:103220001092CF051092D2051092D1051092D805B8
:103230001092D7051092DA051092DD051092DF0585
:103240001092DE05109261051092620510926305DE
:103250001092640581E090E0A0E0B0E08093650505
:1032600090936605A0936705B09368051092D90501
:1032700089E18093EC041092DD041092DC0410923A
:10328000DB041092DA041092D9041092D804109240
:10329000E3041092E2041092E1041092E004109210
:1032A000DF041092DE041092E9041092E8041092F8
:1032B000E7041092E6041092E5041092E4041092E0
:1032C000EB041092EA041092ED041092EE041092B6
:1032D000EF041092F0041092F1041092F2048FEFB8
:1032E00093E090939D0480939C048CEF93E00E9464
:1032F000111789EF93E00E94111786EF93E00E9467
:10330000111783EF93E00E9411171092D7031092C8
:10331000D603C092D803D092D903E092DA03F09298
:10332000DB038DE192E09093D5038093D403109258
:10333000EB031092EA031092ED031092EC0310924B
:10334000EF031092EE031092F1031092F0036091DC
:10335000F2036E7F6D7F6093F2036695617081E08A
:10336000682782E00E94150361E082E00E94430327
:10337000EDEAF1E0E491E093E403E9E9F1E0E491BE
:10338000F0E0EE0FFF1FE357FE4F8591949190936D
:10339000E6038093E50360E083E00E9443038091AD
:1033A000F20381FD04C061E083E00E94150383E025
:1033B0008093E003EEEAF1E0E491E093E103EAE9CF
:1033C000F1E0E491F0E0EE0FFF1FED57FE4F859125
:1033D00094919093E3038093E203FF90EF90DF904A
:1033E000CF900895CF93DF93CDB7DEB7C457D109FF
:1033F0000FB6F894DEBF0FBECDBF789484B582605F
:1034000084BD84B5816084BD85B5826085BD85B588
:10341000816085BD80916E00816080936E00109206
:103420008100809181008260809381008091810081
:103430008160809381008091800081608093800012
:103440008091B10084608093B1008091B000816070
:103450008093B00080917A00846080937A0080919C
:103460007A00826080937A0080917A0081608093F4
:103470007A0080917A00806880937A001092C1006F
:1034800060E085E10E94430360E084E10E94430321
:1034900061E08EE00E94430361E085E00E94430307
:1034A00061E084E00E94430360E08EE00E94150327
:1034B00060E085E00E94150360E084E00E9415034F
:1034C00066E970E080E090E00E94B1033324339419
:1034D000212C0E94E3030091BC021091BD022091B7
:1034E000BE023091BF02601B710B820B930B643FD5
:1034F00071408105910508F496C20E94E303609330
:10350000BC027093BD028093BE029093BF0285E11E
:103510000E9474036C0181E031E2C31633E0D306EC
:103520000CF480E080931A03E82EF12CE3E7F1E03D
:103530008491EFEAF1E0B490EBE9F1E0A490AA20E5
:1035400009F4AAC281110E94EC02EA2DF0E0EE0F0C
:10355000FF1FED57FE4FA591B4918C91B82231E039
:1035600020E009F430E0832F922FE816F90609F4E1
:103570005AC2F1E2CF16F3E0DF060CF4C9C261E0F3
:1035800084E00E9415031092250310927503109297
:1035900097030E947C062FEE33E03093B90220930C
:1035A000B80280EF93E09093BB028093BA028091BF
:1035B000EC0411E0109374038093960361EE88ECA1
:1035C00093E00E94D00860E088EC93E00E94D0086D
:1035D00081E00E94BB066AE070E080E090E00E941B
:1035E000B10361E08091EC040E94AB078093240357
:1035F00088EC93E00E9489088233C1F48091EC0446
:10360000109374038093960310927503109297039E
:1036100062E788EC93E00E94D00881E00E94BB063C
:1036200061E070E080E090E00E94B103EEE9F4E038
:1036300011921192A2ECB4E0AE17BF07C9F7109235
:10364000C4041092C5041092C6041092C7041092CC
:10365000C8041092C9041092CA041092CB041092AC
:10366000CC041092CD041092CE041092CF0410928C
:10367000C3041092C204E0919C04F0919D04A089BF
:10368000B18982E08C93A485B5851C92A685B78507
:1036900083E18C93108EA489B5898EE28C93A289E4
:1036A000B3898C9180618C93A289B3898C91886055
:1036B0008C93A289B3898C9180688C930288F3895A
:1036C000E02D80818F7D80831092EF031092EE03B6
:1036D0001092ED031092EC031092EB031092EA03A8
:1036E000EFE1F0E0F093F103E093F0038091E00369
:1036F000863108F047C03092EA032092EB032DE1B7
:1037000030E03093ED032093EC032DE030E0309374
:10371000EF032093EE039091680024E0883050F08E
:1037200021E08E3008F420E0F32D01C0FF0F2A9530
:10373000EAF72F2F922B909368002DE630E0883027
:1037400050F02BE630E08E3030F02CE630E0863161
:1037500010F030E020E03093E8032093E703282FB7
:1037600030E0883008F09BC1232D01C0220F8A95DC
:10377000EAF7822F8093E9038091F0039091F1039F
:103780000197F1F78091EE039091EF03892B49F1B6
:10379000E091B602F091B70233E0E43DF30709F19E
:1037A000309739F0A389B4899C91858980958923C4
:1037B0008C938091F2038E7F8093F2031092B50276
:1037C0001092B40284ED93E09093B7028093B60216
:1037D000E091E703F091E80380819091E903892B60
:1037E0008083109225031092240310927503109287
:1037F00097030E947C068FEE93E09093B90280932A
:10380000B802A0EFB3E0B093BB02A093BA028CE081
:103810008093B80010924B0510924A0588EC93E013
:1038200090934D0580934C051092DC0582E48093C3
:103830005D0580916D0590916E05892B59F5E0909D
:103840006F05F090700580E091E0E114F10409F05B
:1038500033C10E944D2B9093700580936F05909318
:10386000A00580939F05892B09F042C110926E0537
:1038700010926D0580915E05811104C080915F05F5
:10388000882341F06AE371E08091520590915305DD
:103890000E94F1038091D1059091D2050097F9F033
:1038A0002091CF053091D005232BC9F40E944D2BD8
:1038B0009093D0058093CF05892B09F020C180918A
:1038C0005E05811104C080915F05882341F06AEE96
:1038D00070E080915205909153050E94F1030E947F
:1038E0001713811106C00E941713811102C00E9494
:1038F000171316E0109397051092980530929905CA
:1039000020929A0510929E0510929D05E0916F05F8
:10391000F091700510828CE494E00E9438100B97AF
:10392000C1F4109397051092980584E190E090936C
:103930009A058093990510929E0510929D05E0913D
:103940006F05F091700581E086878CE494E00E9419
:1039500038108AEF8093BB058091BC058B3F08F03F
:103960008AEF8093BA0586E08093970588E080937C
:10397000980510929A051092990510929E05109242
:103980009D058CE494E00E9438100B97D1F4E091EF
:103990006F05F091700588EE8083E0916F05F091DE
:1039A000700583E081838CE494E00E943810E091FC
:1039B0002E05F0912F05309721F017821086118681
:1039C000128686E08093970589E080939805ECE065
:1039D000F0E0F0939A05E093990510929E051092FD
:1039E0009D05E0916F05F09170058CE0DF011D925F
:1039F0008A95E9F7E0919F05F091A00581E0848325
:103A0000E0919F05F091A0051582E0919F05F0914E
:103A1000A0051682E0919F05F091A00517828CE425
:103A200094E00E94381080911A03882309F438C664
:103A300080919C0490919D04DC01ED91FC910084A7
:103A4000F185E02D0995892B09F422C280919C040F
:103A500090919D04DC01ED91FC910284F385E02DB1
:103A60000995E091D902E11158C08F3009F455C091
:103A70008091CC049091CD04A091CE04B091CF045C
:103A80000196A11DB11D8093CC049093CD04A09309
:103A9000CE04B093CF04CCCF90E080E066CD8E30E2
:103AA00040F428503109832D01C0880F2A95EAF788
:103AB00061CE2E503109F7CF0E944D2B8C01892BFE
:103AC00061F480915E05811105C080915F058823B6
:103AD00009F4E0CE6EE071E0D7CEC7010E94E92B79
:103AE0001093700500936F051093A00500939F0538
:103AF00080E091E090936E0580936D05CBCE10929F
:103B0000D4051092D3051092D6051092D505E7CEB4
:103B100060E084E00E94150386CF91E09E0F9093B1
:103B2000D902F0E0E054FD4F8083993109F080CF55
:103B30001092D9028091D80281119ACF8091C40449
:103B40009091C504A091C604B091C7040196A11D2F
:103B5000B11D8093C4049093C504A093C604B09390
:103B6000C7048091C20290E02091C1023091C2024C
:103B7000377030939F0420939E044091C30250E01D
:103B800063E0959587956A95E1F79A0175E0220FB4
:103B9000331F7A95E1F7822B932B97709093A104B2
:103BA0008093A0048091C50290E03091C402B4E0FB
:103BB0003B9F90011124E6E055954795EA95E1F782
:103BC000242B352BAC01542F4427550F550F242B94
:103BD000352B37703093A3042093A2042091C602A2
:103BE00030E095958795A9015695542F4427579510
:103BF0004795842B952B97709093A5048093A404EC
:103C00004091C70250E014E0359527951A95E1F7E9
:103C1000CA0104E0880F991F0A95E1F7282B392B78
:103C200037703093A7042093A6042091C90230E096
:103C30009091C802892F90E0880F991F440F452F5B
:103C4000441F550B842B952BA901542F4427550F46
:103C5000842B952B97709093A9048093A80480914E
:103C6000CA0290E03595279535952795AC01A6E0D9
:103C7000440F551FAA95E1F7242B352B377030934D
:103C8000AB042093AA042091CB02E8E02E9F900180
:103C90001124B5E095958795BA95E1F7822B932B82
:103CA0009093AD048093AC048091CD0290E020917C
:103CB000CC023091CD0237703093AF042093AE0424
:103CC0004091CE0250E013E0959587951A95E1F763
:103CD0009A0105E0220F331F0A95E1F7822B932BFF
:103CE00097709093B1048093B0048091D00290E0DB
:103CF0003091CF02F4E03F9F9001112466E055958A
:103D000047956A95E1F7242B352BAC01542F4427B6
:103D1000550F550F242B352B37703093B304209358
:103D2000B2042091D10230E095958795A90156956E
:103D3000542F442757954795842B952B9770909334
:103D4000B5048093B4044091D20250E0A4E03595CC
:103D50002795AA95E1F7CA01B4E0880F991FBA9593
:103D6000E1F7282B392B37703093B7042093B60432
:103D70002091D40230E09091D302892F90E0880FF7
:103D8000991F440F452F441F550B842B952BA901D8
:103D9000542F4427550F842B952B97709093B9047B
:103DA0008093B8048091D50290E03595279535959C
:103DB0002795AC01E6E0440F551FEA95E1F7242B67
:103DC000352B37703093BB042093BA042091D60270
:103DD00048E0249F90011124F5E095958795FA9588
:103DE000E1F7822B932B9093BD048093BC048091C8
:103DF000D70280FF3EC0AFEFB7E0B093BF04A093FF
:103E0000BE0481FF3BC0EFEFF7E0F093C104E09305
:103E1000C00483FF38C03092C2042092C30482FFE2
:103E200013C08091C8049091C904A091CA04B091B4
:103E3000CB040196A11DB11D8093C8049093C904C1
:103E4000A093CA04B093CB040E94E3038B019C01AE
:103E50006093D0041093D1048093D2043093D304A0
:103E60001092D4041092D5041092D6041092D70464
:103E7000DFCD1092BF041092BE04C3CF1092C104D4
:103E80001092C004C6CF1092C3041092C204C7CFD0
:103E90000E94E303009102031091030320910403A5
:103EA00030910503601B710B820B930B6436710517
:103EB0008105910508F444C10E94E3036093020365
:103EC00070930303809304039093050381E090E0D3
:103ED0000E940209782E82E090E00E940209682E7A
:103EE00089E090E00E940209E2968FAFE297F4E643
:103EF000F6150CF425C10E94E3039B01AC0160E0C0
:103F000070E080E090E0A090D004B090D104C09028
:103F1000D204D090D304E090D404F090D504009162
:103F2000D6041091D7040E943E2B28383341410516
:103F30005105610571058105910511F00CF000C175
:103F4000272D770C330B440B550B2C593F4F4F4FFC
:103F50005F4FAAE5B0E00E942B2728EC30E040E05C
:103F600050E00E940C2769017A01BDE2CB0ED11C02
:103F7000E11CF11C262D660C330B440B550B2C5900
:103F80003F4F4F4F5F4FAAE5B0E00E942B2728EC30
:103F900030E040E050E00E940C2729013A01EDE2B8
:103FA0004E0E511C611C711C809100018C1509F48E
:103FB00087C38091E3058C3008F043C061E086E060
:103FC0000E9443038091E305282F30E0F901EE0FB2
:103FD000FF1FE20FF31FE652FD4F9081907C966029
:103FE00090831092E4051092E5052CE0622F0E9468
:103FF000322B829FB001112430E020E0AB01420F50
:10400000531FFA01EE0FFF1FE40FF51FE652FD4F9D
:10401000908196FD08C02F5F3F4F2C30310571F71E
:1040200090E00E944306E091E3058E2F90E0FC01B2
:10403000EE0FFF1FE80FF91FE652FD4F80818064ED
:1040400080836C2D70E083EE95E00E94DB050E947A
:10405000E3034B015C018092FE029092FF02A0926A
:104060000003B0920103C09200018091E6058C30FC
:1040700008F043C061E081E10E9443038091E605BE
:10408000282F30E0F901EE0FFF1FE20FF31FE65279
:10409000FD4F9081907C916190831092E705109282
:1040A000E8052CE0622F0E94322B829FB001112480
:1040B00030E020E0AB01420F531FFA01EE0FFF1F6B
:1040C000E40FF51FE652FD4F908196FD08C02F5F6B
:1040D0003F4F2C30310571F790E00E944306E0918C
:1040E000E6058E2F90E0FC01EE0FFF1FE80FF91F91
:1040F000E652FD4F808180648083B20186EE95E0B8
:104100000E94DB0569E170E080E090E00E94B1036D
:10411000E091E6058E2F90E0FC01EE0FFF1FE80F07
:10412000F91FE652FD4F80818F7B808361E0E2962C
:10413000FFADE297FC340CF460E085E00E941503CB
:104140000E94E303009106031091070320910803E6
:1041500030910903601B710B820B930B683E734017
:104160008105910510F10E94E303609306037093AB
:104170000703809308039093090319861A861B8608
:104180001C868AE08D8788E08E8780EC8F8783E0AD
:10419000888B898B188642E369E0CE0101960E94E4
:1041A0005E09CE0101960E94290A0E94E303009154
:1041B0000A0310910B0320910C0330910D03601B37
:1041C000710B820B930B603D77408105910508F4DC
:1041D000A1C00E94E30360930A0370930B038093D2
:1041E0000C0390930D030E941C0920E030E04AE785
:1041F00054E40E9440290E945328E5966CAF7DAF9D
:104200008EAF9FAFE5970E941C096B017C012FE8E0
:1042100032EC47E851E40E94DC2760E087FD49C0AA
:1042200021EE3AE740E951E4C701B6010E943B297B
:1042300064E61816F4F120E030E040E450E4C701F1
:10424000B6010E94AD292B013C01A7019601C701CF
:10425000B6010E94402926E63EEC47E555E40E945F
:1042600040294B015C0124EA30E343E852ECC301EE
:10427000B2010E9440299B01AC01C501B4010E941A
:1042800070274B015C0120E037E54CE657ECC70195
:10429000B6010E9440299B01AC01C501B4010E94F6
:1042A000702720E637E54CEA58E40E9470270E9408
:1042B0005A2819861A861B861C861D861E861F860E
:1042C000188A198A1A8A1B8A1C8A1E8A1D8AE396F2
:1042D0008EAD9FADE397988F8F8B8FEF9FEF9A8F67
:1042E000898F1C8E1B8E1E8E1D8E18A21F8E1AA2E9
:1042F00019A21CA21BA21EA21DA26FA381E0888787
:104300004CE76FE1CE0101960E945E09CE01019655
:104310000E94290A0E94E30300910E0310910F03EB
:104320002091100330911103601B710B820B930BD2
:10433000683B7B408105910508F490C00E94E3032F
:1043400060930E0370930F038093100390931103F7
:104350008091040590910505892B11F40E94771333
:104360008091040590910505C12CD12C7601009710
:10437000E9F0805A9F4FFC01808181FD04C08AE0F2
:1043800090E00E949D13A0910405B0910505FD01E8
:10439000E35AFF4F83818D7F838380818E7F80836B
:1043A0005D96CD90DD90ED90FC9090978091040506
:1043B00090910505892B11F40E94771380910405D3
:1043C00090910505812C912C54010097E9F0805AB9
:1043D0009F4FDC018C9180FD04C08AE090E00E9438
:1043E0009D13A0910405B0910505FD01E35AFF4F0F
:1043F00083818E7F838380818E7F808359968D9089
:104400009D90AD90BC905C970E94E30369877A878A
:104410008B879C87CD86DE86EF86F88A898A9A8A82
:10442000AB8ABC8A1D8A1E8A1F8A188E198E1A8E24
:104430001B8E1C8E1E8E1D8E18A21F8E1AA219A2F4
:104440001CA21BA281E2888748E66CE1CE0101969E
:104450000E945E09CE0101960E94290A0E94E30390
:10446000009112031091130320911403309115034E
:10447000601B710B820B930B683B7B4081059105A0
:1044800008F486C00E94E303609312037093130341
:104490008093140390931503809104059091050572
:1044A000892B11F40E9477138091040590910505E2
:1044B00010E00097C9F0825A9F4FFC01808186FD71
:1044C00004C08CE494E00E949D13A0910405B09177
:1044D0000505FD01E35AFF4F81818F7B8183808138
:1044E0008E7F808355961C918091040590910505DF
:1044F000892B11F40E947713809104059091050592
:1045000020E00097C9F0815A9F4FDC018C9187FD14
:1045100004C08CE494E00E949D13A0910405B09126
:104520000505FD01E35AFF4F82818F7782838081E9
:104530008E7F808358962C9119861A861B861C863E
:104540001D861E861F86188A198A1A8A1B8A1C8A4B
:104550001D8A1E8A1F8A188E198E1A8E1B8E1C8E1B
:104560008FEF9FEF9E8F8D8F98A38F8F1AA219A226
:104570009CA38BA31DA32EA388E1888748E16EE14D
:10458000CE0101960E945E09CE0101960E94290A81
:104590000E94E30300911603109117032091180362
:1045A00030911903601B710B820B930B683B7B40AE
:1045B0008105910508F474C00E94E303609316031B
:1045C0007093170380931803909319038091040547
:1045D00090910505892B11F40E94771380910405B1
:1045E00090910505C12CD12C76010097F9F08F59D7
:1045F0009F4FFC01808182FD04C08CE494E00E9406
:104600009D138091040590910505FC01EF59FF4F22
:1046100020812B7F2083349720812E7F20838F5B06
:104620009F4FDC01CD90DD90ED90FC900E94E30364
:1046300069877A878B879C871D861E861F86188AC6
:10464000198A1A8A1B8A1C8AC701B6010E948B2804
:1046500020E030E543EC57E40E94E12725E33AEF00
:104660004EE85CE30E9440296D8B7E8B8F8B988F88
:10467000198E1A8E1B8E1C8E1D8E1E8E1F8E18A2DA
:1046800019A21AA21BA21CA28EE1888747E26CE144
:10469000CE0101960E945E09CE0101960E94290A70
:1046A00080E090E0892B11F40C94691A0E948C042C
:1046B000882311F40C94661A0E9400000C94661A68
:1046C0008090FE029090FF02A0900003B090010342
:1046D0000E94E303681979098A099B09693C7105FD
:1046E0008105910508F4B7CCE091E3058E2F90E0A9
:1046F000FC01EE0FFF1FE80FF91FE652FD4F80810E
:104700008F7B8083A8CC8DE192E09093D50380933A
:10471000D4038091B6029091B702845D934071F406
:10472000E091E703F091E80390818091E90380959F
:10473000892380831092B7021092B6028091CF0530
:104740009091D005009771F00E94E92B1092D0054E
:104750001092CF051092D2051092D1051092D80573
:104760001092D7058091F6049091F704009731F0EC
:104770000E94E92B1092F7041092F6048091F8043D
:104780009091F904009731F00E94E92B1092F904FE
:104790001092F8048091160590911705009731F05A
:1047A0000E94E92B1092170510921605E091FA0469
:1047B000F091FB04309781F0858D968D009711F074
:1047C0000E94E92B8091FA049091FB040E94E92B4E
:1047D0001092FB041092FA04E091FC04F091FD04A5
:1047E000309781F0818D928D009711F00E94E92B16
:1047F0008091FC049091FD040E94E92B1092FD042D
:104800001092FC04E091FE04F091FF04309781F0D7
:10481000838D948D009711F00E94E92B8091FE0406
:104820009091FF040E94E92B1092FF041092FE0465
:10483000E0910205F0910305309781F081A592A5E2
:10484000009711F00E94E92B8091020590910305D9
:104850000E94E92B10920305109202058091040535
:1048600090910505009799F087599F4FFC01808131
:104870009181009711F00E94E92B8091040590919D
:1048800005050E94E92B1092050510920405E091A0
:104890000605F0910705309781F0858D968D00977C
:1048A00011F00E94E92B80910605909107050E9466
:1048B000E92B1092070510920605E0910A05F09188
:1048C0000B05309781F0858D968D009711F00E9431
:1048D000E92B80910A0590910B050E94E92B10921B
:1048E0000B0510920A05E0910C05F0910D0530972B
:1048F00081F085A596A5009711F00E94E92B809183
:104900000C0590910D050E94E92B10920D05109257
:104910000C05E0910E05F0910F05309781F085A10F
:1049200096A1009711F00E94E92B80910E059091BD
:104930000F050E94E92B10920F0510920E05E091D1
:104940001005F0911105309781F085A596A5009787
:1049500011F00E94E92B80911005909111050E94A1
:10496000E92B10921105109210058091120590917B
:104970001305009799F08F579F4FFC01808191811B
:10498000009711F00E94E92B809112059091130578
:104990000E94E92B1092130510921205E091080570
:1049A000F0910905309781F0838D948D009711F077
:1049B0000E94E92B80910805909109050E94E92B3E
:1049C0001092090510920805E0911405F091150563
:1049D000309781F0858D968D009711F00E94E92B1C
:1049E00080911405909115050E94E92B10921505F0
:1049F00010921405E0911805F0911905309781F097
:104A000087A590A9009711F00E94E92B80911805C5
:104A1000909119050E94E92B109219051092180522
:104A200080911A0590911B05009799F08E5F934F26
:104A3000FC0180819181009711F00E94E92B809107
:104A40001A0590911B050E94E92B10921B051092EC
:104A50001A0580911C0590911D05009799F0875BC0
:104A60009F4FFC0180819181009711F00E94E92BFA
:104A700080911C0590911D050E94E92B10921D0547
:104A800010921C05E0911E05F0911F05309781F0F2
:104A9000818D928D009711F00E94E92B80911E0567
:104AA00090911F050E94E92B10921F0510921E0580
:104AB000E0910005F0910105309781F083859485A0
:104AC000009711F00E94E92B80910005909101055B
:104AD0000E94E92B1092010510920005E09120053B
:104AE000F0912105309781F083819481009711F036
:104AF0000E94E92B80912005909121050E94E92BCD
:104B00001092210510922005E0912205F0912305D5
:104B1000309781F083819481009711F00E94E92BF6
:104B200080912205909123050E94E92B1092230584
:104B300010922205E0912405F0912505309781F02F
:104B400083819481009711F00E94E92B80912405C4
:104B5000909125050E94E92B1092250510922405BD
:104B6000E0912605F0912705309781F083819481AB
:104B7000009711F00E94E92B80912605909127055E
:104B80000E94E92B10922705109226058091280596
:104B900090912905009799F0825B9F4FFC018081DD
:104BA0009181009711F00E94E92B80912805909146
:104BB00029050E94E92B1092290510922805809161
:104BC0002A0590912B05009799F08A56944FFC0185
:104BD00080819181009711F00E94E92B80912A0534
:104BE00090912B050E94E92B10922B0510922A051B
:104BF00080912E0590912F05009731F00E94E92BAE
:104C000010922F0510922E05E0913005F09131059C
:104C1000309781F085A196A1009711F00E94E92BB1
:104C200080913005909131050E94E92B1092310559
:104C300010923005E0913205F0913305309781F004
:104C4000818D928D009711F00E94E92B80913205A1
:104C5000909133050E94E92B109233051092320592
:104C6000E0913A05F0913B05309781F085A996A92E
:104C7000009711F00E94E92B80913A0590913B0535
:104C80000E94E92B10923B0510923A05E091340501
:104C9000F0913505309781F085A596A5009711F024
:104CA0000E94E92B80913405909135050E94E92BF3
:104CB0001092350510923405809136059091370594
:104CC000009799F083579F4FFC0180819181009755
:104CD00011F00E94E92B80913605909137050E94D2
:104CE000E92B109237051092360580913805909186
:104CF0003905009799F0865C9D4FFC018081918178
:104D0000009711F00E94E92B8091380590913905A8
:104D10000E94E92B109239051092380580914205C6
:104D200090914305009731F00E94E92B10924305C2
:104D3000109242058091440590914505009731F00D
:104D40000E94E92B1092450510924405E0913E0522
:104D5000F0913F05309781F081A592A5009711F061
:104D60000E94E92B80913E0590913F050E94E92B1E
:104D700010923F0510923E05E0914005F0914105EB
:104D8000309781F085A596A5009711F00E94E92B38
:104D900080914005909141050E94E92B10924105B8
:104DA0001092400580913C0590913D05009799F047
:104DB0008F5A9F4FFC0180819181009711F00E94D2
:104DC000E92B80913C0590913D050E94E92B1092C2
:104DD0003D0510923C0580916F05909170050097FC
:104DE00031F00E94E92B1092700510926F058091AE
:104DF000710590917205009731F00E94E92B109295
:104E00007205109271058091730590917405009759
:104E100011F00C94E92B0895052E97FB1EF40094D5
:104E20000E94232757FD07D00E943E2707FC03D08E
:104E30004EF40C94232750954095309521953F4F83
:104E40004F4F5F4F089590958095709561957F4F76
:104E50008F4F9F4F08950E946027A59F900DB49F8C
:104E6000900DA49F800D911D11240895B7FF0C94FF
:104E70002B270E942B27821B930B0895A1E21A2E49
:104E8000AA1BBB1BFD010DC0AA1FBB1FEE1FFF1FEE
:104E9000A217B307E407F50720F0A21BB30BE40B3E
:104EA000F50B661F771F881F991F1A9469F7609585
:104EB0007095809590959B01AC01BD01CF0108953F
:104EC000A29FB001B39FC001A39F700D811D11244B
:104ED000911DB29F700D811D1124911D0895505890
:104EE000BB27AA270E9487270C9401290E94F32838
:104EF00038F00E94FA2820F039F49F3F19F426F484
:104F00000C94F0280EF4E095E7FB0C94EA28E92FC6
:104F10000E94122958F3BA1762077307840795078E
:104F200020F079F4A6F50C9434290EF4E0950B2EBC
:104F3000BA2FA02D0B01B90190010C01CA01A001EB
:104F40001124FF27591B99F0593F50F4503E68F146
:104F50001A16F040A22F232F342F4427585FF3CF87
:104F6000469537952795A795F0405395C9F77EF458
:104F70001F16BA0B620B730B840BBAF09150A1F0A1
:104F8000FF0FBB1F661F771F881FC2F70EC0BA0F27
:104F9000621F731F841F48F4879577956795B795AF
:104FA000F7959E3F08F0B0CF9395880F08F09927AA
:104FB000EE0F9795879508950E94C62808F481E022
:104FC00008950E94F5270C9401290E94FA2858F0B0
:104FD0000E94F32840F029F45F3F29F00C94EA285E
:104FE00051110C9435290C94F0280E94122968F371
:104FF0009923B1F3552391F3951B550BBB27AA2792
:1050000062177307840738F09F5F5F4F220F331FCB
:10501000441FAA1FA9F335D00E2E3AF0E0E832D093
:1050200091505040E695001CCAF72BD0FE2F29D096
:10503000660F771F881FBB1F261737074807AB0768
:10504000B0E809F0BB0B802DBF01FF2793585F4FDD
:105050003AF09E3F510578F00C94EA280C943529DB
:105060005F3FE4F3983ED4F3869577956795B795BF
:10507000F7959F5FC9F7880F911D9695879597F9CA
:105080000895E1E0660F771F881FBB1F6217730743
:105090008407BA0720F0621B730B840BBA0BEE1F58
:1050A00088F7E09508950E945A286894B1110C94ED
:1050B000352908950E941A2988F09F5798F0B92F32
:1050C0009927B751B0F0E1F0660F771F881F991F3D
:1050D0001AF0BA95C9F714C0B13091F00E94342982
:1050E000B1E008950C943429672F782F8827B85F92
:1050F00039F0B93FCCF3869577956795B395D9F795
:105100003EF490958095709561957F4F8F4F9F4F9E
:105110000895E89409C097FB3EF4909580957095AA
:1051200061957F4F8F4F9F4F9923A9F0F92F96E9F3
:10513000BB279395F695879577956795B795F11168
:10514000F8CFFAF4BB0F11F460FF1BC06F5F7F4F05
:105150008F4F9F4F16C0882311F096E911C0772317
:1051600021F09EE8872F762F05C0662371F096E820
:10517000862F70E060E02AF09A95660F771F881FEF
:10518000DAF7880F9695879597F90895990F000893
:10519000550FAA0BE0E8FEEF16161706E807F90709
:1051A000C0F012161306E407F50798F0621B730BA4
:1051B000840B950B39F40A2661F0232B242B252B25
:1051C00021F408950A2609F4A140A6958FEF811DC8
:1051D000811D089597F99F6780E870E060E0089569
:1051E0009FEF80EC089500240A94161617061806FF
:1051F0000906089500240A941216130614060506DB
:105200000895092E0394000C11F4882352F0BB0F6B
:1052100040F4BF2B11F460FF04C06F5F7F4F8F4FCE
:105220009F4F089557FD9058440F551F59F05F3F09
:1052300071F04795880F97FB991F61F09F3F79F0B8
:1052400087950895121613061406551FF2CF46953A
:10525000F1DF08C0161617061806991FF1CF8695BC
:105260007105610508940895E894BB2766277727A0
:10527000CB0197F908950E94C62808F48FEF08958E
:105280000E9453290C9401290E94F32838F00E94AF
:10529000FA2820F0952311F00C94EA280C94F028B9
:1052A00011240C9435290E94122970F3959FC1F3A3
:1052B000950F50E0551F629FF001729FBB27F00DC4
:1052C000B11D639FAA27F00DB11DAA1F649F662719
:1052D000B00DA11D661F829F2227B00DA11D621F68
:1052E000739FB00DA11D621F839FA00D611D221F22
:1052F000749F3327A00D611D231F849F600D211D06
:10530000822F762F6A2F11249F5750409AF0F1F088
:1053100088234AF0EE0FFF1FBB1F661F771F881FF1
:1053200091505040A9F79E3F510580F00C94EA2817
:105330000C9435295F3FE4F3983ED4F38695779536
:105340006795B795F795E7959F5FC1F7FE2B880F97
:10535000911D9695879597F90895FA01EE0FFF1F15
:10536000309621053105A1F16115710561F4803890
:10537000BFE39B0749F168949038810561F080385C
:10538000BFEF9B0741F099234AF5FF3FE105310547
:10539000210519F1E8940894E795D901AA2329F485
:1053A000AB2FBE2FF85FD0F310C0FF5F70F4A6954F
:1053B000E0F7F73950F019F0FF3A38F49F779F93F0
:1053C0000DD00F9007FC9058089546F00C94F028EB
:1053D00060E070E080E89FE308954FE79F775F9378
:1053E0004F933F932F930E94A82A2F913F914F9163
:1053F0005F910E9440290C94052A29F416F00C9420
:10540000EA280C9434290C94F0280E941A29A8F355
:105410009638A0F707F80F92E8942BE33AEA48EBA6
:105420005FE70E9456290F920F920F924DB75EB719
:105430000F920E94F02AE8E6F0E00E94372A4F918E
:105440005F91EF91FF91E595EE1FFF1F49F0FE5729
:10545000E0684427EE0F441FFA95E1F74195550B9C
:105460000E946A2A0F9007FE0C945E2A0895DF932B
:10547000CF931F930F93FF92EF92DF927B018C01EA
:10548000689406C0DA2EEF010E945329FE01E894C9
:10549000A5912591359145915591A6F3EF010E9473
:1054A0008727FE019701A801DA9469F7DF90EF9052
:1054B000FF900F911F91CF91DF9108959B01AC0157
:1054C00060E070E080E89FE30C94E1270C94EA2808
:1054D0000C94242B0E941A29D8F39923C9F3940F12
:1054E000511DA3F39150504094F059F0882332F0AD
:1054F000660F771F881F91505040C1F79E3F51059E
:105500002CF7880F911D9695879597F908955F3F21
:10551000ACF0983E9CF0BB27869577956795B7953C
:1055200008F4B1609395C1F7BB0F58F711F460FF11
:10553000E8CF6F5F7F4F8F4F9F4FE3CF0C9435299C
:1055400016F00C94242B0C94F02868940C94EA2800
:105550000E941A29A8F39923C1F3AEF3DF93CF93E6
:105560001F930F93FF92C92FDD2788232AF02197DD
:10557000660F771F881FDAF720E030E040E85FEB26
:105580009FE3883920F0803E38F021968F770E9483
:105590007027E0E9F0E004C00E947027EDEBF0E036
:1055A0000E94372A8B01BE01EC01FB2E6F57710957
:1055B0007595771F880B990B0E948B2828E132E79D
:1055C00041E35FE30E945329AF2D9801AE01FF90A4
:1055D0000F911F91CF91DF910E9487270C94012991
:1055E000FA01DC01AA0FBB1F9B01AC01BF5728F4D5
:1055F000222733274427507820C0B75190F4AB2F8F
:105600000024469537952795011CA395D2F30020D9
:1056100071F0220F331F441FB395DAF30ED00C94B0
:105620006F2761307105A0E88A07B94630F49B0105
:10563000AC016627772788279078309621F0208361
:1056400031834283538308959F3F31F0915020F47A
:10565000879577956795B795880F911D969587954E
:1056600097F90895991B79E004C0991F961708F0DF
:10567000961B881F7A95C9F7809508952A193B09CA
:105680004C095D096E097F09800B910B0895EE0F9F
:10569000FF1F0590F491E02D09940F931F93CF9372
:1056A000DF938230910510F482E090E0E091EB0509
:1056B000F091EC0530E020E0B0E0A0E0309799F404
:1056C0002115310509F44AC0281B390B2430310556
:1056D000D8F58A819B816115710589F1FB0193835E
:1056E0008283FE0111C040815181028113814817DC
:1056F0005907E0F04817590799F4109761F012968E
:105700000C93129713961C933296CF01DF91CF9191
:105710001F910F9108950093EB051093EC05F4CFC2
:105720002115310551F04217530738F0A901DB016B
:105730009A01BD01DF01F801C1CFEF01F9CF9093CC
:10574000EC058093EB05CDCFFE01E20FF31F8193B3
:1057500091932250310939832883D7CF2091E905CD
:105760003091EA05232B41F4209104013091050189
:105770003093EA052093E90520910201309103015D
:105780002115310541F42DB73EB7409106015091E6
:105790000701241B350BE091E905F091EA05E217BA
:1057A000F307A0F42E1B3F0B2817390778F0AC0144
:1057B0004E5F5F4F2417350748F04E0F5F1F509321
:1057C000EA054093E905819391939FCFF0E0E0E0F3
:1057D0009CCFCF93DF930097E9F0FC0132971382BF
:1057E0001282A091EB05B091EC05ED0130E020E0D4
:1057F0001097A1F420813181820F931F2091E90538
:105800003091EA052817390709F061C0F093EA05DD
:10581000E093E905DF91CF910895EA01CE17DF0704
:10582000E8F54A815B819E0141155105B1F7E90117
:10583000FB83EA8349915991C40FD51FEC17FD07EB
:1058400061F4808191810296840F951FE90199830B
:105850008883828193819B838A83F0E0E0E01296C3
:105860008D919C9113970097B9F52D913C911197CB
:10587000CD010296820F931F2091E9053091EA0530
:105880002817390739F6309751F51092EC05109228
:10589000EB05B093EA05A093E905BCCFD383C2839F
:1058A00040815181840F951FC817D90761F44E5F5D
:1058B0005F4F88819981480F591F518340838A81A6
:1058C0009B81938382832115310509F0B0CFF0933A
:1058D000EC05E093EB059ECFFD01DC01C0CF138208
:1058E0001282D7CFFB01DC0102C001900D92415022
:1058F0005040D8F7089510E0C1EED0E004C0FE019A
:105900000E94472B2196C23ED107C9F7F894FFCFDA
:1059100059010000ED058000482024880034020071
:105920000000000000000000000000000000000077
:10593000000000000000002C00000000000000102B
:105940000024001400000010001200200000005C81
:105950000000001400000000000000000000000033
:10596000000000140024001C00240000000000744B
:105970000000000000000000000000000000000027
:1059800000000021001400000000000000180000CA
:105990000000000000000000000000000000000007
:1059A0000000000000000000000000FC0B000000F0
:1059B000000000000000002800400000000000007F
:1059C00000000000000000000000000000000000D7
:1059D00000000000000000000000000000000000C7
:1059E00000000000000000000000000000000000B7
:1059F00000000000000000000000000000000000A7
:105A0000001000040000000000C20422044F040F34
:105A10000580045E04720400000000D008A308FFA3
:105A20000847059C0889087A0800000000480522FC
:0E5A300004FF084705A405BA052F050D0A005E
:107800000C94343C0C94513C0C94513C0C94513CE1
:107810000C94513C0C94513C0C94513C0C94513CB4
:107820000C94513C0C94513C0C94513C0C94513CA4
:107830000C94513C0C94513C0C94513C0C94513C94
:107840000C94513C0C94513C0C94513C0C94513C84
:107850000C94513C0C94513C0C94513C0C94513C74
:107860000C94513C0C94513C11241FBECFEFD8E036
:10787000DEBFCDBF11E0A0E0B1E0ECE9FFE702C060
:1078800005900D92A230B107D9F712E0A2E0B1E065
:1078900001C01D92AD30B107E1F70E942D3D0C945F
